:020000040000FA
:0400000024EF2DF0CC
:080008009AEF2DF00201A86B34
:1000100012000201A36B1200BCEF2CF0525300003F
:1000200001E11200030EFF0FD8A4FDD70000522FEC
:10003000F9D712004153000001E11200FD0E00004B
:1000400000000000000000000000000000000000B0
:1000500000000000000000000000000000000000A0
:100060000000000000000000000000000000000090
:100070000000000000000000000000000000000080
:100080000000000000000000000000000000000070
:100090000000000000000000000000000000000060
:1000A0000000000000000000000000000000000050
:1000B00000000000FF0FD8A4C2D70000000000001D
:1000C0000000000000000000000000000000000030
:1000D0000000000000000000000000000000000020
:1000E0000000000000000000000000000000000010
:1000F0000000000000000000000000000000000000
:1001000000000000000000000000000000000000EF
:1001100000000000000000000000000000000000DF
:100120000000000000000000000000000000412F5F
:1001300085D71200FA0E0301416F1AEC00F0FA0E97
:10014000416F1AEC00F0FA0E416F1AEC00F0FA0E53
:10015000416F1AEC00F00201CC2FECD71200CA510B
:10016000D06FC951CE6FCF6BD890CE37CF37CE3747
:10017000CF37CE37CF37CE37CF37900ECE27010EC1
:10018000CF23000EFB6EFB22CF51FA6ECE51F96EDB
:10019000000EF86E010EF76EDE0EF66EE6EF00F062
:1001A000000EF86E010EF76EE20EF66EE6EF00F04E
:1001B000000EF86E020EF76E040EF66EE6EF00F01B
:1001C000000EF86E020EF76E080EF66ED051F6268F
:1001D000D8B0F72AD8B0F82A0800F5501200303508
:1001E000330041435455414445204153205350541A
:1001F0002D3134352050616E2654696C74202056A0
:1002000065722E0050414E0054494C540000D59E5A
:100210006251FF08646FFF0E63576451626F635150
:10022000D76E6251D66EF294F28AD58E1200020118
:10023000245103015E6F0201255103015F6F02012A
:1002400026510301606F020127510301616F020112
:1002500027350301613360335F335E330201273595
:100260000301613360335F335E33020127350301DD
:10027000613360335F335E3302012735030161333D
:1002800060335F335E33BB0E5C6F5E515C27000EE4
:100290005D6F5F515D231200566B576B545302E143
:1002A00055530EE0564B572B010E545D5A6F54595F
:1002B0000108555D5B6F5A5154175B515517EED7C6
:1002C0005651586F5751596F120052516F6E6DA0B1
:1002D000FED76F50536F120044514A6F45514B6F18
:1002E00042514C6F43514D6F0201B70502E18A98AC
:1002F00001D08A9A010E0301526F0EEC00F0506B90
:10030000516B5151800A526F4751800A525D02E190
:100310004651505D0DE24B51EA6E4A51E96EEF5085
:10032000526F65EC01F04A4B4B2B504B512BE9D7E8
:100330004E6B4F6B4F51800A506F4951800A505D90
:1003400002E148514E5D0EE2526B65EC01F04D51F9
:10035000EA6E4C51E96E5351EF6E4C4B4D2B4E4BA8
:100360004F2BE8D7010E526F0EEC00F00201B705DB
:1003700002E18A8812008A8A12000201A851A96F3C
:10038000A86B000EA965120089848986020E0301FC
:10039000416F1AEC00F09D88A388120001EE00F076
:1003A000E9500201A851E92603014051EF6E020114
:1003B000A82B12003A6B3B6B396B3851EA6E375100
:1003C0003925E96EEF503C6F300E3C6101D01200D0
:1003D000390E3C6501D01200300E3C5F0A0E3A0324
:1003E000F3503D6FF4503E6F0A0E3B03F3503E272F
:1003F0003D513A6F3E513B6F3C513A27D8B03B2BB1
:10040000392BDBD7395130090001F66F010E02019B
:10041000B66F03013751426F3851436F000E456F7D
:10042000F60E446F010E466F476B010E486F496B25
:100430006CEC01F012003A5140090001F66F010E18
:1004400003013B6F3C6B3A51546F556B4CEC01F020
:1004500058513D6F59513E6FD8903D373E373E5110
:10046000800A3F6F3C51800A3F5D04E13D513B658E
:1004700001D00BD00AE300EEF6F0E9503B51E9263B
:10048000000EEF6E3B4B3C2BDED73A51546F556B51
:100490004CEC01F058510201B66F030159513B6F0A
:1004A000D8900201B63703013B370201B62B030196
:1004B0003851426F3951436F000E456FF60E446F4D
:1004C000010E466F476B0201B6510301486F496B3D
:1004D0006CEC01F01200010E0201B76FB751020877
:1004E000D8A01200010E0301386FA40E376F060E5C
:1004F000396F02EC02F0B72BF1D706EC00F00301E4
:10050000376B37510C08D8A0120037532EE037054F
:1005100033E0020E376301D036D0030E376301D0CB
:1005200039D0040E376301D03CD0050E376301D0BB
:100530003FD0060E376301D042D0070E376301D09B
:1005400045D0080E376301D048D0090E376301D07B
:100550004BD00A0E376301D05BD00B0E376301D04E
:100560005CD00C0E376399D05DD00201AC51030111
:10057000406FCEEC01F091D00201AD510301406F0C
:10058000CEEC01F08AD0020108510301406FCEEC9D
:1005900001F083D0020109510301406FCEEC01F05C
:1005A0007CD002010A510301406FCEEC01F075D0FE
:1005B0000101E1510301406FCEEC01F06ED0010169
:1005C000E2510301406FCEEC01F067D00101E3512D
:1005D0000301406FCEEC01F060D00101E451030152
:1005E000406FCEEC01F059D0FF0E02016E6303D0D4
:1005F0006F51FF0A06E0B2510301406FCEEC01F0EB
:100600004CD0200EB2250301406FCEEC01F045D056
:100610000D0E406FCEEC01F040D00A0E406FCEECD4
:1006200001F03BD00201B00538E14C500301406FAE
:10063000CEEC01F00101D6510301406FCEEC01F088
:100640004E500301406FCEEC01F04D500301406F5E
:10065000CEEC01F050500301406FCEEC01F04F5052
:100660000301406FCEEC01F00101D8510301406F4E
:10067000CEEC01F00101D7510301406FCEEC01F047
:100680000101DA510301406FCEEC01F00101D951B3
:100690000301406FCEEC01F0B06B0301372B31D773
:1006A000375302E1385310E03751C80DF3503B6F18
:1006B000F4503A6F3851C80DF3503A273B51FF08B8
:1006C000396FFF0E3A5702D039693A693951CE6E07
:1006D0003A51CF6ECD8012000201046B056B066BA0
:1006E000076B08510301376F386B396B3A6B375121
:1006F0000201046F030138510201056F03013951F2
:100700000201066F03013A510201076FD88404E128
:10071000D88402E1D88405E0046B056B066B076B97
:100720000AD0080EFF0B07E0D890043705370637CC
:100730000737FF0FF7D709510301376F386B396B54
:100740003A6B3751020104130301385102010513BA
:10075000030139510201061303013A510201071343
:10076000D88404E1D88402E1D88405E0046B056BE9
:10077000066B076B0AD0080EFF0B07E0D890043712
:10078000053706370737FF0FF7D70A510301376FD1
:10079000386B396B3A6B375102010413030138513E
:1007A00002010513030139510201061303013A51F5
:1007B00002010713000E0301386F570E376FDAEC92
:1007C00001F03A510201686F03013B510201696F68
:1007D000010EAB6F1200010E0201B76FB751020894
:1007E000D8A01200010E0301396FA40E386F060E57
:1007F0003A6F1BEC02F0B70504E0020EB76370D04D
:1008000031D00301376B01EEA4F0E9503751E926EE
:10081000EF504C6E372B01EEA4F0E9503729E92652
:10082000EF503A6FA40EE96E3751E926EF504E6E45
:10083000396B4D6A3A514D12020E372701EEA4F082
:10084000E9503729E926EF503A6FA40EE96E375187
:10085000E926EF50506E396B4F6A3A514F12020E33
:1008600037273ED00301376B01EEA4F0E950375132
:10087000E926EF500101D66F0301372B01EEA4F0FA
:10088000E9503729E926EF503A6FA40EE96E375147
:10089000E926EF500101D86F0301396B0101D76BD5
:1008A00003013A510101D713020E0301372701EE6C
:1008B000A4F0E9503729E926EF503A6FA40EE96E0B
:1008C0003751E926EF500101DA6F0301396B01015D
:1008D000D96B03013A510101D913020E03013727E5
:1008E0000201B72B7BD700EE60F0E9500201A65160
:1008F000E926A551EF6EA6532AE0A60539E0020EBF
:10090000A66301D049D0030EA66301D045D0040EE2
:10091000A66301D041D0050EA66301D050D0060ECB
:10092000A66301D04CD0070EA66301D048D0080EB4
:10093000A66301D05ED0090EA66301D07BD00A0E5B
:10094000A66301D088D00B0EA66392D08BD0210E67
:10095000A56301D007D0230EA56301D003D0240ED8
:10096000A56304D0A551AC6FA62B1200A66B120094
:10097000410EA56101D003D0A5515A0807E2610ECE
:10098000A56101D007D0A5517A0804E3A551AD6F48
:10099000A62B1200A66B1200410EA56101D00DD04E
:1009A000A5515A080AE302EE08F0E950020EA65DCE
:1009B000E926A551EF6EA62B1200A66B1200300E91
:1009C000A56101D003D0A551390807E2410EA56108
:1009D00001D00DD0A55146080AE300EE57F0E950CA
:1009E000050EA65DE926A551EF6EA62B1200A66B9B
:1009F0001200300EA56101D003D0A55139080EE2D6
:100A0000410EA56101D003D0A5515A0807E2610E3D
:100A1000A56101D00DD0A5517A080AE300EE57F088
:100A2000E950050EA65DE926A551EF6EA62B120032
:100A3000A66B1200520EA56301D007D0570EA56316
:100A400001D003D0500EA56304D0A551B26FA62BE0
:100A50001200A66B12000D0EA56302D0A62B120089
:100A6000A66B12000A0EA56301D07E82A66B12004F
:100A7000A66B12009EAA07D09DAA05D0AE50020117
:100A8000A56F73EC04F0A4AA07D0A3AA05D07450F4
:100A90000201A56F73EC04F09EA804D09DA802D0BB
:100AA000A3A808D09EA812009DA81200A4A8120016
:100AB000A3A812000201A951A8610DD001EE00F017
:100AC000E950A851E926EF50AA6FAA51AD6EAA517C
:100AD000736EA82B12009D98A398120000EEC4F02C
:100AE000E950A351E926E151EF6EA32B1200010E4C
:100AF0000301526F0EEC00F00201A351A46FA36B2F
:100B00000201A453D8B41200899A00EEC4F0E9504F
:100B1000A351E926EF50C96EC7A0FED700EEC4F07E
:100B2000E950A351E926C950EF6EA32BA407898A87
:100B3000010E0301526F0EEC00F0E2D7286B296B17
:100B40002A6B2B6B2A6B2B6B20512403F350286FDD
:100B5000F450296F21512403F3502927F4502A23FC
:100B6000D8B02B2B22512403F3502A27F4502B23E7
:100B700023512403F3502B2720512503F350292719
:100B8000F4502A23D8B02B2B21512503F3502A27C8
:100B9000F4502B2322512503F3502B2720512603F9
:100BA000F3502A27F4502B2321512603F3502B27EF
:100BB00020512703F3502B2712002D6B2E6B2F6B28
:100BC000306B336B346B356B366B316B200E3115FC
:100BD000326F32671200D8903337343735373637B3
:100BE00024372537263727372D372E372F373037FD
:100BF0002B51305D08E12A512F5D05E129512E5D11
:100C000002E128512D5D09E328512D5F29512E5B0A
:100C10002A512F5B2B51305B3381312BD7D71951A0
:100C2000000ED8B4186101D007D019BF05D01851F3
:100C3000206F1951296F0BD0181D2A6F191D2B6FAA
:100C40002A2BD8B42B2B2A51206F2B51296F2951D5
:100C5000216F226B236B29AF02D022072307000EDE
:100C6000246F800E256F266B276B9EEC05F02851B4
:100C70001C6F29511D6F2A511E6F2B511F6F1B5165
:100C8000000ED8B41A6101D007D01BBF05D01A518D
:100C9000246F1B51296F0BD01A1D2A6F1B1D2B6F40
:100CA0002A2BD8B42B2B2A51246F2B51296F295171
:100CB000256F266B236B29AF02D02607230723510C
:100CC000276F233527332633253324311C2725511D
:100CD0001D2326511E2327511F231B51000ED8B45C
:100CE0001A6101D007D01BBF05D01A51286F1B51C4
:100CF0002D6F0BD01A1D2E6F1B1D2F6F2E2BD8B4EE
:100D00002F2B2E51286F2F512D6F2D51296F2A6BAC
:100D1000236B2DAF02D02A0723072C6B1C51246FA5
:100D20001D51256F1E51266F1F51276F23512B6FA9
:100D300023AF0CD0281F291F2A1F2B1F282BD8B404
:100D4000292BD8B42A2BD8B42B2B2C2BDDEC05F077
:100D500033511C6F34511D6F35511E6F36511F6F4B
:100D60002CA10BD01C1F1D1F1E1F1F1F1C2BD8B416
:100D70001D2BD8B41E2BD8B41F2B1C51206F1D5116
:100D8000216F1200F56BF66BF16BF26BF36B100ECB
:100D9000F315F46FF4671200D890F137F237ED379E
:100DA000EE37F537F637EF51F55DF051F663F65D46
:100DB00005E3EF51F55FF051F65BF181F32BE7D7D7
:100DC000F56BF66BF96BFA6BF76B100EF715F86FA6
:100DD000F8671200D890F937FA37F137F237F5375C
:100DE000F637F351F55DF451F663F65D05E3F35123
:100DF000F55FF451F65BF981F72BE7D709EC00F0CA
:100E0000DD51E16F6EEC05F0DE51E16F6EEC05F047
:100E1000899A77EC05F0898A1200DD51EA6EDC517F
:100E2000E025E96E000EEF6EE007DE51ED6FDF5159
:100E3000EE6F0A0EEF6FF06BC2EC06F0F551E16F4A
:100E4000300EE127DD51EA6EDC51E025E96EE1511B
:100E5000EF6EE053D8B41200DE51F16FDF51F26F44
:100E60000A0EF36FF46BE0EC06F0F951DE6FFA5105
:100E7000DF6FDAD7045309E1055307E1025305E1B7
:100E8000035303E1126B136B12000251046308D089
:100E90000351056305D0940E126F110E136F1200EB
:100EA00004530BE1055309E1025302E1035305E04A
:100EB000280E126F230E136F12000351800A146F55
:100EC0000551800A145D02E10451025D15E20251F0
:100ED000186F0351196F04511A6F05511B6F0FECF6
:100EE00006F020510A6F21510B6F0C6B0D6B21AF77
:100EF0001FD00C070D071CD00451186F0551196F36
:100F000002511A6F03511B6F0FEC06F02051146F42
:100F10002151156F166B176B21AF02D016071707FB
:100F200014510A6F15510B6F16510C6F17510D6F3D
:100F3000020138510301206F020139510301216F71
:100F400002013A510301226F02013B510301236F59
:100F50000A51246F0B51256F0C51266F0D51276FCD
:100F60009EEC05F02851066F2951076F2A51086F32
:100F70002B51096F0A51206F0B51216F0C51226FB9
:100F80000D51236F0D3523332233213320330D359B
:100F900023332233213320330D35233322332133BE
:100FA00020330D3523332233213320330D352333C2
:100FB0002233213320330A51246F0B51256F0C51FA
:100FC000266F0D51276F0D352733263325332433F4
:100FD0000D3527332633253324330D352733263378
:100FE000253324330D3527332633253324330D356C
:100FF00027332633253324339EEC05F02851206F08
:101000002951216F2A51226F2B51236F0A51246FCE
:101010000B51256F0C51266F0D51276F0D3527335E
:101020002633253324330D35273326332533243314
:101030000D3527332633253324330D352733263317
:10104000253324330D3527332633253324339EECC3
:1010500005F028510E6F29510F6F2A51106F2B5137
:10106000116F0F51206F1051216F1151226F236B9F
:1010700011BF230711352233213320331135223399
:1010800021332033113522332133203311352233DC
:1010900021332033113522332133203311352233CC
:1010A00021332033113522332133203302013C51C7
:1010B0000301246F02013D510301256F02013E51DE
:1010C0000301266F02013F510301276F9EEC05F0DB
:1010D0002851146F2951156F2A51166F2B51176F14
:1010E00014510627155107231651082317510923B8
:1010F0001051206F1151146F1135143320331135F5
:101100001433203311351433203311351433203385
:101110000A51246F0B51256F0C51266F0D51276F0B
:101120000D3527332633253324330D352733263326
:10113000253324330D3527332633253324330D351A
:1011400027332633253324330D35273326332533F0
:1011500024331451216F226B14BF2207236B14BF59
:1011600023079EEC05F02851206F2951216F2A5149
:10117000226F2B51236F0A51246F0B51256F0C5195
:10118000266F0D51276F0D35273326332533243332
:101190000D3527332633253324330D3527332633B6
:1011A000253324330D3527332633253324330D35AA
:1011B00027332633253324339EEC05F02851156F51
:1011C0002951166F2A51176F2B51186F15510E6F39
:1011D00016510F6F1751106F1851116F0F51206F6B
:1011E0001051216F1151226F236B11BF230711354D
:1011F000223321332033113522332133203311356B
:10120000223321332033113522332133203311355A
:10121000223321332033113522332133203311354A
:10122000223321332033020140510301246F020194
:1012300041510301256F020142510301266F020152
:1012400043510301276F9EEC05F02851146F29517B
:10125000156F2A51166F2B51176F14510627155110
:10126000072316510823175109230751146F0851FA
:10127000156F0951166F176B09BF1707093516331C
:101280001533143309351633153314330935163332
:101290001533143309351633153314330935163322
:1012A0001533143309351633153314330935163312
:1012B00015331431066F1551076F1651086F17510A
:1012C000096F0551800A146F0351800A145D02E111
:1012D0000251045D17E206512808146F230E196F9E
:1012E0000751195B1951156F166B176B19AF02D0A7
:1012F000160717071451066F1551076F1651086F1F
:101300001751096F09AF04D0066B076B086B096BA7
:101310000951000808E10851000805E107512308B8
:1013200002E10651280809BFD88006E2280E066FA0
:10133000230E076F086B096B0651126F0751136F6D
:101340001200A69CA6B2FED7CD51A96ECE51A86EB2
:10135000A69EA684C395F2BEC385F29E550EA76EC7
:10136000AA0EA76EA682A694C3B5F28EC3A5F29E5E
:1013700012000A0EDD6FDC51DE6FFEEC06F012008B
:10138000090EDD6FDC51DE6FFEEC06F012000C0E74
:10139000DD6FDC51DE6FFEEC06F012000B0EDD6F30
:1013A000DC51DE6FFEEC06F01200160E0201806FBB
:1013B000816BAF0E8003F350CC6FF450CD6FAF0E46
:1013C0008103F350CD27CC51806FCD51816F805177
:1013D000F16F8151F26F640EF36FF46BE0EC06F085
:1013E000F951806FFA51816F6A518003F350CC6FCD
:1013F000F450CD6F6B518003F350CD276A518103B8
:10140000F350CD27CC51806FCD51816F8051F16F5A
:101410008151F26F640EF36FF46BE0EC06F0F9515A
:10142000806FFA51816F160E826F836BC80E820334
:10143000F350CC6FF450CD6FC80E8303F350CD271B
:10144000CC51826FCD51836F8251F16F8351F26F16
:10145000640EF36FF46BE0EC06F0F951826FFA5111
:10146000836F6A518203F350CC6FF450CD6F6B5190
:101470008203F350CD276A518303F350CD27CC511B
:10148000826FCD51836F8251F16F8351F26F640E81
:10149000F36FF46BE0EC06F0F951826FFA51836F51
:1014A000160E846F856BC80E8403F350CC6FF45016
:1014B000CD6FC80E8503F350CD27CC51846FCD512D
:1014C000856F8451F16F8551F26F640EF36FF46B89
:1014D000E0EC06F0F951846FFA51856F6A5184038C
:1014E000F350CC6FF450CD6F6B518403F350CD2784
:1014F0006A518503F350CD27CC51846FCD51856F50
:101500008451F16F8551F26F640EF36FF46BE0EC70
:1015100006F0F951846FFA51856F160E7E6F7F6B5E
:10152000640E7E03F350CC6FF450CD6F640E7F03D6
:10153000F350CD27CC517E6FCD517F6F7E51F16F2F
:101540007F51F26F640EF36FF46BE0EC06F0F9512B
:101550007E6FFA517F6F78517E03F350CC6FF45059
:10156000CD6F79517E03F350CD2778517F03F3502F
:10157000CD27CC517E6FCD517F6F7E51F16F7F5162
:10158000F26F640EF36FF46BE0EC06F0F9517E6FCE
:10159000FA517F6F160E8C6F8D6B7D0E8C03F3509E
:1015A000CC6FF450CD6F7D0E8D03F350CD27CC5111
:1015B0008C6FCD518D6F8C51F16F8D51F26F640E28
:1015C000F36FF46BE0EC06F0F9518C6FFA518D6F0C
:1015D00078518C03F350CC6FF450CD6F79518C035C
:1015E000F350CD2778518D03F350CD27CC518C6F1C
:1015F000CD518D6F8C51F16F8D51F26F640EF36F81
:10160000F46BE0EC06F0F9518C6FFA518D6F12001B
:1016100000EEC4F0E950CD51CE6FCE51E926EF5027
:10162000CF6F1200000EFC6307D0800EFD6304D064
:10163000010EFC6F800EFD6F000EFA6307D0800E66
:10164000FB6304D0010EFA6F800EFB6FFD51000E9C
:10165000D8B4FC6101D023D0FDBF21D0FB51000ED6
:10166000D8B4FA6101D01BD0FBBF19D0FA510301E5
:10167000026F0201FB510301036F0201FC510301E0
:10168000046F0201FD510301056F3AEC07F012519E
:101690000201FE6F030113510201FF6F87D0000E9C
:1016A000FC65FD6701D002D0FDAF2AD0FB51000ED2
:1016B000D8B4FA6101D024D0FBBF22D0FA51030183
:1016C000026F0201FB510301036F0201FC1D0301C4
:1016D000046F0201FD1D0301056F042BD8B4052B17
:1016E0003AEC07F012515008006F460E1355016F87
:1016F00000510201FE6F030101510201FF6F56D03C
:10170000000EFC65FD6701D002D0FDAF2DD0000EAC
:10171000FA65FB6701D002D0FBAF26D0FA1D0301AA
:10172000026F0201FB1D0301036F022BD8B4032BD0
:101730000201FC1D0301046F0201FD1D0301056F81
:10174000042BD8B4052B3AEC07F01251B00F006F00
:101750001351016FB90E012300510201FE6F030105
:1017600001510201FF6F22D0FA1D0301026F020135
:10177000FB1D0301036F022BD8B4032B0201FC51A4
:101780000301046F0201FD510301056F3AEC07F0FC
:10179000121D006F131D016F002BD8B4012B0051D7
:1017A0000201FE6F030101510201FF6FFE510301AF
:1017B000006F0201FF510301016F1200D5EC09F027
:1017C000945305E17E51DC6FC0EC09F004D08C51DC
:1017D000DC6FC0EC09F08051DC6FB9EC09F082518C
:1017E000DC6FCEEC09F08451DC6FC7EC09F012001D
:1017F000280ECC65CD6701D003D0280ECC6FCD6B01
:10180000CC510301206F0201CD510301216F226BE6
:10181000236B620E246F5D0E256F010E266F000E86
:10182000276F9EEC05F0285102010C6F030129512E
:1018300002010D6F03012A5102010E6F03012B51AA
:1018400002010F6F0C510301246F02010D510301BE
:10185000256F02010E510301266F02010F51030192
:10186000276F280E286F296B2A6B2B6BDDEC05F098
:10187000335102010C6F0301345102010D6F03015A
:10188000355102010E6F0301365102010F6F120034
:10189000230E0201AE6317D0410EAF6F140E6C6FB2
:1018A0006D6B640E6A6F6B6B010E766F776B640EF7
:1018B000786F796B580E726F1B0E736FB80E746F62
:1018C0000B0E756F19D0240EAE6316D0410EAF6F9C
:1018D000140E6C6F6D6B640E6A6F6B6B010E766F1E
:1018E000776B640E786F796B880E726F170E736F5B
:1018F000880E746F0F0E756FFF0E7A6303D07B51E5
:10190000FF0A0AE073517B5D02E172517A5D04E2E5
:101910007A51726F7B51736F7C5302E17D530AE001
:101920007D51755D02E17C51745D04E27C51746F00
:101930007D51756F010E966F9651CD6FAF51CE6F81
:10194000A1EC09F0020E966F9651CD6F6C51CE6FDF
:10195000A1EC09F0030E966F9651CD6F6A51CE6FD0
:10196000A1EC09F0050E966F9651CD6F7851CE6FB0
:10197000A1EC09F0040E966F9651CD6F7651CE6FA3
:10198000A1EC09F0060E966F9651CD6F7351CE6F94
:10199000A1EC09F0070E966F9651CD6F7251CE6F84
:1019A000A1EC09F0080E966F9651CD6F7551CE6F70
:1019B000A1EC09F0090E966F9651CD6F7451CE6F60
:1019C000A1EC09F0010EDD6FE10EDC6F6851DE6FF6
:1019D0006951DF6F040EE06F0DEC07F01200600E2E
:1019E0000001F66F000E0201E115E36FE251FF0BFB
:1019F0000001F76F0201E1510001F86F0201DF51B0
:101A00000001F96FF937F937FC0EF917010E0201E1
:101A1000B66FDD510301426F0201DE510301436FD6
:101A2000000E456FF60E446F040E466F476B010EB5
:101A3000486F496B6CEC01F01200500E0001F66F1C
:101A40000201DF510001F76FF737F737FC0EF71788
:101A5000030E0201B66FDD510301426F0201DE5138
:101A60000301436F000E456FF60E446F020E466F82
:101A7000476B030E486F496B6CEC01F012000201DA
:101A8000C395F2BEC385F29E550EA76EAA0EA76E31
:101A9000A682C3B5F28EC3A5F29EA6941200DD51B4
:101AA000EA6EDC51E025E96E000EEF6EE0070F0EE6
:101AB000DE15E16F090EE16503D0370EE12702D094
:101AC000300EE127DD51EA6EDC51E025E96EE1518F
:101AD000EF6EE053D8B41200040EE26FE253E6E07A
:101AE000D890DF33DE33E207FAD7D96BD31DDB6F33
:101AF000D41DDA6FDA51DC6FD951DD6F05E0DA35CC
:101B0000DC33DB33DD07FAD7DB51010B02E0D92BE5
:101B1000EDD7010EDE6FA40EDD6FD251DF6FE06BEB
:101B20001DEC0DF00101A5510201D76FD86BD75103
:101B3000D86FD76B0101A6510201D713D31DDF6FF8
:101B4000D41DE06FDF51D717E051D817D551DD6FA5
:101B5000D651DE6FD951FF0B07E0D890DD37DE3765
:101B6000D6BFDE8FFF0FF7D7DD51D713DE51D81365
:101B7000010EDE6FA40EDD6FD251DF6FE06BD75127
:101B8000E16FD851E26FEFEC0CF01200DC51F66E11
:101B9000DD51F76EDE51F86E400EE26FE251E36FF9
:101BA000E207E3530AE0E151EA6EE051E96EE04BEF
:101BB000E12BEF50F56E0D00F1D70A00840EA66EF2
:101BC0003FEC0DF01200F151F66EF251F76EF35149
:101BD000F86E0900F550F56F0900F550F66FF551F4
:101BE000F76FF651F86F1200DC51F66EDD51F76EAB
:101BF000DE51F86E940EA66E3FEC0DF0120002015D
:101C0000CC6BCD6B400ECC5D0CE2CD670AD001EE03
:101C100064F0E950CC51E926FF0EEF6ECC4BCD2B92
:101C2000F1D7B16B1200ED0502E1020EB56FB553AD
:101C3000FEE14D50FB6F4E50FC6FFD6BFE6B4EAEE8
:101C400002D0FD07FE070101D9510201F26F010127
:101C5000DA510201F36FF46BFA6B0101DAAF03D0D2
:101C60000201F407FA070201FB51F227FC51F323AA
:101C7000FD51F423FE51FA23FA51F56FFA35F5338D
:101C8000F433F333F2334F50F66F5050F76FF86B75
:101C9000FA6B50AE02D0F807FA070101D7510201E2
:101CA000FB6F0101D8510201FC6FFD6BFE6B01015E
:101CB000D8AF03D00201FD07FE070201FB51F65F1A
:101CC000FC51F75BFD51F85BFE51FA5BFA51F96F7D
:101CD000FA35F933F833F733F633F251FA6FF3513B
:101CE000FB6FF651FC6FF751FD6F12EC0BF00051DA
:101CF0000201EE6F030101510201EF6FF06BF16B16
:101D0000030101AF03D00201F007F107500E0201F9
:101D1000EE27460EEF23000EF023000EF123EE51C6
:101D2000FA6FEF51FB6F120009EC00F0C751E16F41
:101D30006EEC05F0C951E16F6EEC05F0C851E16F32
:101D40006EEC05F0899A77EC05F0898A120009ECAF
:101D500000F0CC515009E16F6EEC05F0CF51E16F0E
:101D60006EEC05F0CE51E16F6EEC05F0CD51E16FF8
:101D70006EEC05F0899A77EC05F0898A120048EC40
:101D80000CF0DEEC0BF06C51CC6F6D51CD6FF8ECBC
:101D90000BF0010E976F120009EC00F0DC514009C6
:101DA000E16F6EEC05F0DF51E16F6EEC05F0DE5196
:101DB000E16F6EEC05F0DD51E16F6EEC05F0899A94
:101DC00077EC05F0898A120009EC00F0B80EE16F9B
:101DD0006EEC05F0899A77EC05F0898A120009EC1F
:101DE00000F0C4512009E16F6EEC05F0E16B6EEC80
:101DF00005F0E16B6EEC05F0E16B6EEC05F0899A95
:101E000077EC05F0898A010ECD6F08EC0BF0CF510D
:101E1000C56FC66BC76BC86BD88404E1D88402E178
:101E2000D88405E0C56BC66BC76BC86B0AD0080EBB
:101E3000FF0B07E0D890C537C637C737C837FF0F45
:101E4000F7D7020ECD6F08EC0BF0CF51C96FCA6BFC
:101E5000CB6BCC6BC951C513CA51C613CB51C71339
:101E6000CC51C813D88404E1D88402E1D88405E0B9
:101E7000C56BC66BC76BC86B0AD0080EFF0B07E0BB
:101E8000D890C537C637C737C837FF0FF7D7030E07
:101E9000CD6F08EC0BF0CF51C96FCA6BCB6BCC6B1D
:101EA000C951C513CA51C613CB51C713CC51C8135E
:101EB000C551C96FC651CA6FC751CB6FC851CC6FDE
:101EC000120009EC00F0C4512009E16F6EEC05F03E
:101ED000E16B6EEC05F0E16B6EEC05F0899A77EC46
:101EE00005F0898A010ECD6F08EC0BF0CF51C56F5C
:101EF000C66BC551C66FC56B020ECD6F08EC0BF0FB
:101F0000CF51C513C551C76FC651C86F1200610EBE
:101F1000CC6101D007D0CC517A0804E3DF0ECC1598
:101F2000CD6F1200CC51CD6F1200D06BCB6BCE6B4E
:101F3000400ECF6FCF51C95D02E1CE51C85D07E2BF
:101F4000D890CF33CE33D890CF33CE33F3D7CE53D0
:101F500003E1CF53D8B41200CE51D025CC6FCF516E
:101F6000CD6FCB51CD23CC51C85DCD51C963C95D77
:101F70000FE3CC51C85FCD51C95BCE51D16FCF516A
:101F8000D26FD890D137D237D151D027D251CB236D
:101F9000D890CB33D033D890CF33CE33D890CF3303
:101FA000CE33D5D7010ED26FD36B100ED46FD05174
:101FB000D56FD66B75EC0DF01200010ED26FD36B9E
:101FC000800ED46FD051D56FD66B75EC0DF012002A
:101FD000010ED26FD36B040ED46FD051D56FD66B78
:101FE00075EC0DF01200020ED26FD36B040ED46F9D
:101FF000D051D56FD66B75EC0DF01200020ED26F7A
:10200000800ED36F010ED46FD051D56FD66B75ECA7
:102010000DF01200020ED26F600ED36FD46BD05150
:10202000D56FD66B75EC0DF01200020ED26F030E59
:10203000D36FD46BD051D56FD66B75EC0DF0120009
:10204000020ED26FD36B180ED46FD051D56FD66BF2
:1020500075EC0DF01200D26B0F0ED36FD46BD05114
:10206000D56FD66B75EC0DF01200D26B700ED36F7E
:10207000D46BD051D56FD151D66F75EC0DF01200E5
:10208000010ED26FD36B080ED46FD051D56FD66BC3
:1020900075EC0DF01200020ED26F1C0ED36FD46BD4
:1020A000D051D56FD66B75EC0DF01200010ED26FCA
:1020B000D36B600ED46FD051D56FD66B75EC0DF02D
:1020C0001200010ED26F3F0ED36FD46BD051D56F7B
:1020D000D66B75EC0DF01200010ED26FC00ED36FEF
:1020E000030ED46FD051D56FD66B75EC0DF0120086
:1020F000D26BD36B010ED46FD051D56FD66B75EC0C
:102100000DF01200F29E0201C86BE00EC96FCA6B9F
:10211000CB6BC851DC6FC951DD6FCA51DE6FCB513B
:10212000DF6FF4EC0DF0FFEC0DF000510101646F76
:10213000020101510101656F020102510101666F47
:10214000020103510101676F0201C851DC6FC951DF
:10215000DD6FCA51DE6FCB51DF6F010EE16F640E90
:10216000E06FC6EC0DF0F28E1200E00EB26EB10E12
:10217000B36E350EB16EB49EA292A192A0821200EF
:10218000CE6ACF6A340ECD6ECC9E9F909E909D807D
:102190001200D76AD66A170ED56ED59EF194F294C6
:1021A000F29A120002019DB507D00101E66BE76BC0
:1021B000E86BE96B02019D859DB703D0646B656B8D
:1021C0009D87A053D8B48AD0BFEC0EF00C0EDC6F04
:1021D000B9EC09F0210E106F116B126B136B1051DB
:1021E0000301206F020111510301216F02011251FD
:1021F0000301226F020113510301236F620E246F4A
:102200005D0E256F010E266F000E276F9EEC05F008
:1022100028510201106F030129510201116F0301BE
:102220002A510201126F03012B510201136F105149
:102230000301246F020111510301256F02011251A4
:102240000301266F020113510301276F280E286F27
:10225000296B2A6B2B6BDDEC05F033510201106FFB
:10226000030134510201116F030135510201126F54
:10227000030136510201136F646B656B010EED6F44
:1022800013EC0EF0FA51C46FFB51C56FC66BC76BF0
:10229000010ECC6F1051CD6F1151CE6F1251CF6F17
:1022A0001351D06FA7EC0EF0FA0E0301416F1AEC38
:1022B00000F0FA0E416F1AEC00F00201C451010166
:1022C000E66F0201C5510101E76F0201C65101012C
:1022D000E86F0201C7510101E96FE6D0640E030106
:1022E000416F1AEC00F0010E0201ED6F13EC0EF0DD
:1022F000FA51CC6FFB51CD6FCE6BCF6BCC51C46F0D
:10230000CD51C56FCE51C66FCF51C76F0101E95195
:102310000201C75D0EE10101E8510201C65D09E15C
:102320000101E7510201C55D04E10101E65102012D
:10233000C45D4AE30101E6510201C45DC86F0101B9
:10234000E7510201C559C96F0101E8510201C6599F
:10235000CA6F0101E9510201C759CB6FCB51000887
:1023600008E1CA51000805E1C951460802E1C85117
:102370005008D8B079D0A00ECC6F0101E65102010F
:10238000CC278C0ECD6F0101E7510201CD23000E49
:10239000CE6F0101E8510201CE23000ECF6F010183
:1023A000E9510201CF23CC51C86FCD51C96FCE5135
:1023B000CA6FCF51CB6FC451C85FC551C95BC651FD
:1023C000CA5BC751CB5B50D0C4510101E65D02012D
:1023D000CC6FC5510101E7590201CD6FC651010112
:1023E000E8590201CE6FC7510101E9590201CF6FCF
:1023F000CC51C86FCD51C96FCE51CA6FCF51CB6F81
:10240000CB51000808E1CA51000805E1C95146084E
:1024100002E1C851500828E2A00ECC6FC451CC276D
:102420008C0ECD6FC551CD23000ECE6FC651CE237D
:10243000000ECF6FC751CF23CC51C86FCD51C96F9C
:10244000CE51CA6FCF51CB6F0101E6510201C85F77
:102450000101E7510201C95B0101E8510201CA5BB8
:102460000101E9510201CB5B000ECB5D08E1000EDA
:10247000CA5D05E1000EC95D02E1190EC85D03E306
:10248000646B656B02D0644B652BC4510101E66F30
:102490000201C5510101E76F0201C6510101E86F58
:1024A0000201C7510101E96F050E0201646565670C
:1024B00001D01200E4EC0EF0640E0301416F1AEC3F
:1024C00000F0BFEC0EF0DC6B5E0EDD6FDE6BDF6BE1
:1024D000E06BCCEC0EF0020E0301416F1AEC00F041
:1024E00082A0FED7010E0201CC6F9AEC00F0010E23
:1024F000ED6F13EC0EF0FA51606FFB51616F010E3E
:102500009E6F12000201A26B00EE0CF0E950A25186
:10251000E9265E51EF6EA22B5F51CA6F0C0EE96E79
:10252000A251E926CA51EF6EA22B400EA26110D033
:1025300000EE0CF0E950A251E926FF0EEF6EA22B3F
:102540000C0EE96EA251E926FF0EEF6EA22BEDD71D
:102550005C6AA00E5D6E5E6A5F6A5C50DC6F5D5007
:10256000DD6F5E50DE6F5F50DF6F000EE16F0C0EAF
:10257000E06FC6EC0DF0A1985C6AA00E5D6E5E6A1D
:102580005F6A5C50F16F5D50F26F5E50F36F5F50A9
:10259000F46FE3EC0DF0F7515E6FF8515F6F010ED1
:1025A000C46FC56B5E51C86F5F51C96FC851C425F8
:1025B000C66FC951C76FC551C723D890C733C6333B
:1025C000C651880F7A6FC7517B6F130E7B23320E73
:1025D0007A5FD8A07B07C65188087C6F130EC75559
:1025E0007D6F320E7C27D8B07D2B73517B5D02E16D
:1025F00072517A5D14E27A51726F7B51736F060EDD
:10260000966F9651CD6F7351CE6FA1EC09F0070E06
:10261000966F9651CD6F7251CE6FA1EC09F07D513E
:10262000755D02E17C51745D14E27C51746F7D51E3
:10263000756F080E966F9651CD6F7551CE6FA1ECE8
:1026400009F0090E966F9651CD6F7451CE6FA1ECC3
:1026500009F0880E706F130E716F030E946F1200E5
:10266000A6B2FED7CD51A96EA69EA69CA680A85064
:10267000CE6F120002019DBD07D00101EE6BEF6B22
:10268000F06BF16B02019D8D9DBF07D00101F26BD4
:10269000F36BF46BF56B02019D8FA053D8B434D16A
:1026A000160EDC6FC0EC09F0160EDC6FB9EC09F009
:1026B000160EDC6FCEEC09F0160EDC6FC7EC09F0DD
:1026C0006251DC6F6351DD6FDE6BDF6BDC51A008A4
:1026D000D06F8C0ED16FDD51D15B000ED26FDE5109
:1026E000D25B000ED36FDF51D35B6051DC6F615161
:1026F000DD6FDE6BDF6BD051DC25D46FD151D56F30
:10270000DD51D523D251D66FDE51D623D351D76FA9
:10271000DF51D723D751000808E1D651000805E161
:10272000D5518C0802E1D451A00808E2A00ED45F74
:102730008C0ED55B000ED65B000ED75BD451E06FDC
:10274000D551E16FD651E26FD751E36FD890E333A3
:10275000E233E133E033E0515008DC6F460EDD6FC9
:10276000E151DD5BDE6BDF6BD051DC27D151DD2326
:10277000D251DE23D351DF23DC51D06FDD51D16F35
:10278000DE51D26FDF51D36F6251DC6F6351DD6F69
:10279000DE6BDF6BD051DC25E06FD151E16FDD5195
:1027A000E123E051626FE151636F63518C0802E1F4
:1027B0006251A00804E2A00E625F8C0E635B605160
:1027C000DC6F6151DD6FDE6BDF6BD051DC25E06FBC
:1027D000D151E16FDD51E123E051606FE151616F53
:1027E00061518C0802E16051A00804E2A00E605F14
:1027F0008C0E615B010EED6F13EC0EF0FA51C46F9D
:10280000FB51C56FC66BC76BD051C425C86FD15182
:10281000C96FC551C923D251CA6FC651CA23D351FA
:10282000CB6FC751CB23CB51000808E1CA51000838
:1028300005E1C9518C0802E1C851A00808E2A00EC8
:10284000C85F8C0EC95B000ECA5B000ECB5BC85123
:102850000101EE6F0201C9510101EF6F0201CA517E
:102860000101F06F0201CB510101F16F010E020174
:10287000DC6F5E0EDD6FDE6BDF6BE06BCCEC0EF0C1
:10288000020E0301416F1AEC00F082A0FED7020E87
:10289000416F1AEC00F0010E02015E6F5F6B5C6A23
:1028A000A00E5D6E5E6A5F6AA26B00EE0CF0E950EE
:1028B000A251E926FF0EEF6EA22B0C0EE96EA2517B
:1028C000E926FF0EEF6EA22B0C0EE96EA251E9264F
:1028D000D051EF6EA22BD151DC6F0C0EE96EA251DC
:1028E000E926DC51EF6EA22B0C0EE96EA251E9260F
:1028F000C851EF6EA22BC951DC6F0C0EE96EA251CC
:10290000E926DC51EF6EA22B5E4B5F2B010EED6FC3
:1029100013EC0EF0FA51DC6FFB51DD6FDE6BDF6BF9
:10292000DC51C46FDD51C56FDE51C66FDF51C76F1B
:10293000D051C425DC6FD151DD6FC551DD23D2519B
:10294000DE6FC651DE23D351DF6FC751DF23DC5169
:10295000C86FDD51C96FDE51CA6FDF51CB6FCB51EC
:10296000000808E1CA51000805E1C9518C0802E1DC
:10297000C851A00808E2A00EC85F8C0EC95B000E0B
:10298000CA5B000ECB5BCB510101F15D0EE1020190
:10299000CA510101F05D09E10201C9510101EF5D78
:1029A00004E10201C8510101EE5D1EE3EE51020196
:1029B000DC6F0101EF510201DD6F0101F0510201F5
:1029C000DE6F0101F1510201DF6FDC2BD8B4DD2B8A
:1029D000D8B4DE2BD8B4DF2BDC51C86FDD51C96F02
:1029E000DE51CA6FDF51CB6F0101EE510201C85DAC
:1029F000CC6F0101EF510201C959CD6F0101F051B6
:102A00000201CA59CE6F0101F1510201CB59CF6FBA
:102A1000020E5E655F6701D0C8D00101F25102016C
:102A2000E06F0101F3510201E16F0101F451020174
:102A3000E26F0101F5510201E36FE02BD8B4E12B05
:102A4000D8B4E22BD8B4E32BCF51E35D08E1CE51EB
:102A5000E25D05E1CD51E15D02E1CC51E05D4AE28C
:102A6000CF51000808E1CE51000805E1CD51000822
:102A700002E1CC5102083EE20101F2510201E06F95
:102A80000101F3510201E16F0101F4510201E26F12
:102A90000101F5510201E36FE02BD8B4E12BD8B46A
:102AA000E22BD8B4E32BE051CC6FE151CD6FE25172
:102AB000CE6FE351CF6FCC510101EE250201E06FE3
:102AC000CD51E16F0101EF510201E123CE51E26FDF
:102AD0000101F0510201E223CF51E36F0101F151F5
:102AE0000201E323E051C86FE151C96FE251CA6F9F
:102AF000E351CB6F010E0101F25D0201DC6F000EAC
:102B00000101F3590201DD6F000E0101F4590201C8
:102B1000DE6F000E0101F5590201DF6FDF51CF5D5D
:102B200008E1DE51CE5D05E1DD51CD5D02E1DC5114
:102B3000CC5D3BE2010E0101F25D0201E06F000E8F
:102B40000101F3590201E16F000E0101F459020184
:102B5000E26F000E0101F5590201E36FE051CC6F05
:102B6000E151CD6FE251CE6FE351CF6FCC510101F6
:102B7000EE250201E06FCD51E16F0101EF5102013D
:102B8000E123CE51E26F0101F0510201E223CF5166
:102B9000E36F0101F1510201E323E051C86FE151FC
:102BA000C96FE251CA6FE351CB6FCC510101F26F93
:102BB0000201CD510101F36F0201CE510101F46F09
:102BC0000201CF510101F56F0201C8510101EE6F01
:102BD0000201C9510101EF6F0201CA510101F06FF9
:102BE0000201CB510101F16F00EE0CF0E95002013E
:102BF000A251E926C851EF6EA22BC951DC6F0C0E11
:102C0000E96EA251E926DC51EF6EA22B9F050FE180
:102C1000010EDD6FE10EDC6FC851DE6FC951DF6F51
:102C2000040EE06F4FEC0DF0010EB06F7E8460512A
:102C3000D86F6151D96FDA6BDB6BDB51CB5D08E18B
:102C4000DA51CA5D05E1D951C95D02E1D851C85DCB
:102C500015E2010EDC6F5E0EDD6FDE6BDF6BE06B8D
:102C6000CCEC0EF0010E0301416F1AEC00F082A0D3
:102C7000FED7010E416F1AEC00F043D0400EA26166
:102C800010D000EE0CF0E950A251E926FF0EEF6ED5
:102C9000A22B0C0EE96EA251E926FF0EEF6EA22BBD
:102CA000EDD7320E0301416F1AEC00F002019F05CF
:102CB00013E1C869C969CA6BCB6B010EDD6FE10E08
:102CC000DC6FC851DE6FC951DF6F040EE06F4FEC4F
:102CD0000DF0010EB06F7E84320E0301416F1AECCD
:102CE00000F0010E0201DD6FE10EDC6F5E51DE6F60
:102CF0005F51DF6F040EE06F0DEC07F07E84030E72
:102D00009E6F400E0201A26101D022D05C50DC6FA8
:102D10005D50DD6F5E50DE6F5F50DF6FF4EC0DF0E5
:102D20005C50DC6F5D50DD6F5E50DE6F5F50DF6FBB
:102D3000000EE16F0C0EE06FC6EC0DF0A198400E96
:102D40005C26000E5D22000E5E22000E5F22A26B4A
:102D5000030E9E6312005C50DC6F5D50DD6F5E50B1
:102D6000DE6F5F50DF6FF4EC0DF0120002019DB9D1
:102D700007D00101EA6BEB6BEC6BED6B02019D89F7
:102D80009DBB03D0666B676B9D8BA053D8B489D075
:102D9000BFEC0EF00C0EDC6FB9EC09F0210E106FD9
:102DA000116B126B136B10510301206F0201115153
:102DB0000301216F020112510301226F020113511D
:102DC0000301236F620E246F5D0E256F010E266FC7
:102DD000000E276F9EEC05F028510201106F0301D1
:102DE00029510201116F03012A510201126F0301DF
:102DF0002B510201136F10510301246F0201115175
:102E00000301256F020112510301266F02011351C4
:102E10000301276F280E286F296B2A6B2B6BDDECC3
:102E200005F033510201106F030134510201116F9B
:102E3000030135510201126F030136510201136F74
:102E4000666B676B010EED6F13EC0EF0FA51C46FF9
:102E5000FB51C56FC66BC76BCC6B1051CD6F115159
:102E6000CE6F1251CF6F1351D06FA7EC0EF0FA0E48
:102E70000301416F1AEC00F0FA0E416F1AEC00F0FA
:102E80000201C4510101EA6F0201C5510101EB6F5A
:102E90000201C6510101EC6F0201C7510101ED6F42
:102EA000E6D0640E0301416F1AEC00F0010E02013E
:102EB000ED6F13EC0EF0FA51CC6FFB51CD6FCE6B72
:102EC000CF6BCC51C46FCD51C56FCE51C66FCF51B2
:102ED000C76F0101ED510201C75D0EE10101EC5127
:102EE0000201C65D09E10101EB510201C55D04E18A
:102EF0000101EA510201C45D4AE30101EA51020104
:102F0000C45DC86F0101EB510201C559C96F0101D0
:102F1000EC510201C659CA6F0101ED510201C759B6
:102F2000CB6FCB51000808E1CA51000805E1C95137
:102F3000460802E1C8515008D8B079D0A00ECC6F35
:102F40000101EA510201CC278C0ECD6F0101EB513A
:102F50000201CD23000ECE6F0101EC510201CE2300
:102F6000000ECF6F0101ED510201CF23CC51C86F8C
:102F7000CD51C96FCE51CA6FCF51CB6FC451C85F0D
:102F8000C551C95BC651CA5BC751CB5B50D0C45158
:102F90000101EA5D0201CC6FC5510101EB5902014B
:102FA000CD6FC6510101EC590201CE6FC75101012D
:102FB000ED590201CF6FCC51C86FCD51C96FCE51C1
:102FC000CA6FCF51CB6FCB51000808E1CA5100083E
:102FD00005E1C951460802E1C851500828E2A00E97
:102FE000CC6FC451CC278C0ECD6FC551CD23000EB4
:102FF000CE6FC651CE23000ECF6FC751CF23CC5119
:10300000C86FCD51C96FCE51CA6FCF51CB6F01017F
:10301000EA510201C85F0101EB510201C95B0101E4
:10302000EC510201CA5B0101ED510201CB5B000EC4
:10303000CB5D08E1000ECA5D05E1000EC95D02E14D
:10304000190EC85D03E3666B676B02D0664B672B96
:10305000C4510101EA6F0201C5510101EB6F020188
:10306000C6510101EC6F0201C7510101ED6F050E60
:1030700002016665676701D01200E4EC0EF0640E91
:103080000301416F1AEC00F0010E0201ED6F13EC29
:103090000EF0FA51626FFB51636F020E9E6F1200C9
:1030A00009EC00F0B00EE16F6EEC05F0899A77EC58
:1030B00005F0898A120009EC00F0A00EE16F6EECB9
:1030C00005F0899A77EC05F0898A12000E0EDD6F03
:1030D000C451DE6FFEEC06F012000F0EDD6FC4511E
:1030E000DE6FFEEC06F01200100EDD6FC451DE6FD5
:1030F000FEEC06F01200160EDD6FC451DE6FFEEC22
:1031000006F01200130EDD6FC451DE6FFEEC06F008
:103110001200080EC76FC451C86FC551C96F94EC37
:103120000EF01200070EC76FC451C86FC551C96FAA
:1031300094EC0EF01200180EC76FC451C86FC55141
:10314000C96F94EC0EF0190EDD6FC651DE6FFEEC08
:1031500006F01200150EC76FC451C86FC551C96F74
:1031600094EC0EF01200060EC76FC451C86FC55123
:10317000C96F94EC0EF01200C4518A6FC5518B6F69
:103180001A0EC76F8A51C86F8B51C96F94EC0EF03D
:103190001200170EDD6FC451DE6FFEEC06F0120058
:1031A000050EC76FC451C86FC551C96F94EC0EF0BE
:1031B000120009EC00F0C00EE16F6EEC05F0899A88
:1031C00077EC05F0898A12000201ED6B13EC0EF02A
:1031D000FA51E56FFB51E66FE76BE86BE551FF08CD
:1031E0000AE1E651FF0807E1E751000804E1E85170
:1031F0000008D8B479D2C86BA00EC96FCA6BCB6B6C
:10320000C851F16FC951F26FCA51F36FCB51F46FCE
:10321000E3EC0DF0F751D86FF851D96FDA6BDB6B37
:10322000D851FF080AE1D951FF0807E1DA51000837
:1032300004E1DB510008D8B401D2020EC86FA00E21
:10324000C96FCA6BCB6BC851F16FC951F26FCA51CC
:10325000F36FCB51F46FE3EC0DF0F751E96FF851D8
:10326000EA6FEB6BEC6BE951E5250101F66F0201AA
:10327000EA510101F76F0201E6510101F723020152
:10328000EB510101F86F0201E7510101F82302013E
:10329000EC510101F96F0201E8510101F923F951E3
:1032A000000808E1F851000805E1F7518C0802E137
:1032B000F651A00808E2A00EF65F8C0EF75B000E38
:1032C000F85B000EF95B010E0201D46FD56BD8518B
:1032D0000101FA6F0201D9510101FB6F0201DA51BC
:1032E0000101FC6F0201DB510101FD6F0201CC699C
:1032F000CD69E46BFF0E0201CC63D1D1FF0ECD632B
:10330000CED1E45306E0E40577E0020EE463F2D7A1
:10331000DAD0020EC86FA00EC96FCA6BCB6BD45146
:10332000ED6FD551EE6FEF6BF06BD890ED37EE3758
:10333000EF37F037ED51C827EE51C923EF51CA23BB
:10334000F051CB23C851F16FC951F26FCA51F36FDD
:10335000CB51F46FE3EC0DF0F751DC6FF851DD6FFA
:10336000DE6BDF6B020EC86FA00EC96FCA6BCB6B32
:103370000101FA510201ED6F0101FB510201EE6FF3
:103380000101FC510201EF6F0101FD510201F06FDB
:10339000D890ED37EE37EF37F037ED51C827EE51C3
:1033A000C923EF51CA23F051CB23C851F16FC95142
:1033B000F26FCA51F36FCB51F46FE3EC0DF0F7519C
:1033C000E06FF851E16FE26BE36BD451ED6FD551D3
:1033D000EE6FEF6BF06B0101FA510201ED25D66F34
:1033E0000101FB510201D76FEE51D723D890D7339B
:1033F000D633010EE46F7ED70101F9510201DF5D82
:103400000EE10101F8510201DE5D09E10101F75110
:103410000201DD5D04E10101F6510201DC5D1FE204
:10342000E3510101F95D0EE10201E2510101F85D94
:1034300009E10201E1510101F75D04E10201E051FE
:103440000101F65D0CE20201D651D26FD751D36F64
:10345000D651CE6FD751CF6F020EE46F4BD701011B
:10346000F9510201DF5D0EE10101F8510201DE5D5B
:1034700009E10101F7510201DD5D04E10101F651AD
:103480000201DC5D04E3D451CC6FD551CD6FE35123
:103490000101F95D0EE10201E2510101F85D09E16E
:1034A0000201E1510101F75D04E10201E051010176
:1034B000F65DD8A01FD7FA510201CC6F0101FB5174
:1034C0000201CD6F17D7020EC86FA00EC96FCA6B6D
:1034D000CB6BD251ED6FD351EE6FEF6BF06BD89099
:1034E000ED37EE37EF37F037ED51C827EE51C923EE
:1034F000EF51CA23F051CB23C851F16FC951F26F7C
:10350000CA51F36FCB51F46FE3EC0DF0F751ED6F4F
:10351000F851EE6FEF6BF06BED51D86FEE51D96F44
:10352000EF51DA6FF051DB6F010ECE65CF6701D03E
:1035300080D0CE51ED6FCF51EE6F020EEF6FF06B7A
:10354000C2EC06F0F551D06FF651D16FCE53CF5388
:10355000D890CF33CE33D051CE27D151ED6FCF514C
:10356000ED23ED51CF6FD8510101F65D15E1020158
:10357000D9510101F75D10E10201DA510101F85D55
:103580000BE10201DB510101F95D06E10201D251BB
:10359000CC6FD351CD6FAED60201DB510101F95D85
:1035A0000EE10201DA510101F85D09E10201D95190
:1035B0000101F75D04E10201D8510101F65D10E25D
:1035C0000201D351CF5D02E1D251CE5D05E2CE5171
:1035D000D25FCF51D35B8ED6010ED26FD36B8AD61A
:1035E0000201CE51D227CF51D323D251ED6FD35107
:1035F000EE6FEF6BF06B0101FD510201F05D0EE12A
:103600000101FC510201EF5D09E10101FB510201E1
:10361000EE5D04E10101FA510201ED5DD8A06AD628
:103620000101FA510201D26F0101FB510201D36F76
:1036300061D6D251CC6FD351CD6F5CD6E55101012B
:10364000F66F0201E6510101F76F0201E751010136
:10365000F86F0201E8510101F96FF6510201CC6FD8
:103660000101F7510201CD6FCC51F16FCD51F26FD5
:103670000A0EF36FF46BE0EC06F0F951CC6FFA51DF
:10368000CD6FD46BD56B100E0101FA6F0E0EFB6F70
:10369000FC6BFD6B080E0201D66F070ED76FCC5185
:1036A000D65DCD51D763D75D12E3CC51D65DED6FBA
:1036B000CD51D759EE6FED51CC6FEE51CD6FCC514E
:1036C0008808ED6F130ECD57ED51CC6F0FD0D6514A
:1036D000CC5FD751CD5BCC51880FED6FCD53130E1E
:1036E000CD23ED51CC6F02D0CC69CD69CC51ED6FBB
:1036F000CD51EE6F120009EC00F0A80EE16F6EECF8
:1037000005F0899A77EC05F0898A1200040E02010F
:10371000C46FEFEC0EF0C951206FCA51216FCB512D
:10372000226FCC51236F1200030E0201C46FEFEC25
:103730000EF0C951186FCA51196FCB511A6FCC5185
:103740001B6F1200020E0201C46F61EC0FF0C75133
:10375000866FC851876F1200010E0201C46FEFEC33
:103760000EF0C951146FCA51156FCB51166FCC5161
:10377000176F120009EC00F0D00EE16F6EEC05F04F
:10378000E16B6EEC05F0E16B6EEC05F0899A77EC7D
:1037900005F0898A010ECD6F08EC0BF0CF51C46F94
:1037A000C56BC451C56FC46B020ECD6F08EC0BF036
:1037B000CF51C413C451C66FC551C76F1200190E43
:1037C00002017C5DC46F7C5919087D5DC56F6E5127
:1037D000C45D6F51C563C55D0DE2C76B190E7A25D7
:1037E000C66F7B51C723C6516E5DC7516F636F5D56
:1037F000D8A01200020E986F1200C86BC751C96F93
:10380000C851CA6FC82BAFEC00F0CB6FC651EA6E3F
:10381000C551E96EC54BC62BCB51EF6EEFE11200DF
:10382000C86BC751EA6EC651E96EC851C82BE9266C
:10383000EF50C96FC551EA6EC451E96EC44BC52B38
:10384000C951EF6EEEE1120080BC02D0898201D036
:103850008992929280AE04D0230E0201AE6F03D003
:10386000240E0201AE6F5C6AA00E5D6E5E6A5F6A36
:103870005C50F16F5D50F26F5E50F36F5F50F46F0C
:10388000E3EC0DF0F751CA6FF851CB6FFF0ECA632E
:1038900003D0CB51FF0A27E0010EC46FC56BCA519C
:1038A000C86FCB51C96FC851C425C66FC951C76F06
:1038B000C551C723D890C733C633C651880F7A6F16
:1038C000C7517B6F130E7B23320E7A5FD8A07B0724
:1038D000C65188087C6F130EC7557D6F320E7C274A
:1038E000D8B07D2B14D0230EAE6309D0580E7A6F5A
:1038F0001B0E7B6FB80E7C6F0B0E7D6F08D0880E91
:103900007A6F170E7B6F880E7C6F0F0E7D6FAB6B1F
:10391000966B9651CD6F30EC13F0CE51CC6FCC51ED
:10392000AE63CC6308D09651CD6FAE51CE6FA1EC93
:1039300009F048EC0CF0010E966F9651CD6F30EC0B
:1039400013F0CE51AF6F060E966F9651CD6F30ECDF
:1039500013F0CE51726F736B7251736F726B070EEF
:10396000966F9651CD6F30EC13F0CE517213FF0E5F
:103970007A6303D07B51FF0A1AE073517B5D02E149
:1039800072517A5D14E27A51726F7B51736F060E39
:10399000966F9651CD6F7351CE6FA1EC09F0070E63
:1039A000966F9651CD6F7251CE6FA1EC09F0080E53
:1039B000966F9651CD6F30EC13F0CE51746F756BDE
:1039C0007451756F746B090E966F9651CD6F30EC14
:1039D00013F0CE5174137C5302E17D531AE07D51F4
:1039E000755D02E17C51745D14E27C51746F7D5110
:1039F000756F080E966F9651CD6F7551CE6FA1EC15
:103A000009F0090E966F9651CD6F7451CE6FA1ECEF
:103A100009F0020E966F9651CD6F30EC13F0CE5137
:103A20006C6F6D6B6C510301206F02016D510301CE
:103A3000216F226B236B620E246F5D0E256F010ECA
:103A4000266F000E276F9EEC05F0285102010C6FC7
:103A50000301295102010D6F03012A5102010E6F6A
:103A600003012B5102010F6F0C510301246F02015E
:103A70000D510301256F02010E510301266F020152
:103A80000F510301276F280E286F296B2A6B2B6BB0
:103A9000DDEC05F0335102010C6F030134510201DA
:103AA0000D6F0301355102010E6F03013651020102
:103AB0000F6F030E966F9651CD6F30EC13F0CE5111
:103AC0006A6F6B6B050E966F9651CD6F30EC13F0ED
:103AD000CE51786F796B040E966F9651CD6F30ECA6
:103AE00013F0CE51766F776B1200C9EC10F0C0EC7A
:103AF00010F0B5EC10F012000F01386B396B3A6B17
:103B00008A908982899489968A888A8A898A828C0D
:103B10008B8C8B9492809292929492969288929AA5
:103B2000928C928E616AF19E939093929384939675
:103B30009398939A938C938E619C618E94809482D7
:103B4000949494969488949A948C948E010E030184
:103B5000416F1AEC00F08A801200050E0301416FDC
:103B60001AEC00F0D9EC18F0050E0301416F1AECC5
:103B700000F0ACEC1BF0A2EC1BF094EC1BF086EC1C
:103B80001BF05B0EC46FC56BD0EC18F05B0EC46FFE
:103B9000C56BB3EC18F0580EC46FC56B92EC18F0FF
:103BA000C46BC56B89EC18F0DEEC0BF0470EC46FEC
:103BB00066EC18F0040EC46F6DEC18F0290EC46F9B
:103BC00074EC18F00F0EC46F82EC18F0270EC46F5F
:103BD000C56BAAEC18F00C0EC46F7BEC18F0EF0E5E
:103BE000C46FC9EC18F0C30EC46FC56B400EC66F2E
:103BF0009BEC18F0900EC46FB00EC56FBCEC18F0C3
:103C0000010E0301416F1AEC00F0BAEC1BF0C65133
:103C1000886FC751896FBAEC1BF0C651886FC751C6
:103C2000896F82B203D0010EB46F1200B46B120020
:103C3000140E0201A76F020EF16FE00EF26FF36B2C
:103C4000F46BE3EC0DF0FF0EF7630BD0FF0EF8639F
:103C500008D0800E006F250E016F026B036B82ECA3
:103C600010F0006B016B026B036B020EF16FE00E44
:103C7000F26FF36BF46BE3EC0DF0F751006FF8515A
:103C8000016F026B036BD88404E1D88402E1D8840D
:103C900005E0006B016B026B036B0AD0100EFF0B8B
:103CA00007E0D8900037013702370337FF0FF7D707
:103CB000F16BE00EF26FF36BF46BE3EC0DF0F75188
:103CC000C86FF851C96FCA6BCB6BC8510013C9518B
:103CD0000113CA510213CB510313C46B900EC56F6D
:103CE000D00EC66F030EC76FC4510301246F0201CB
:103CF000C5510301256F0201C6510301266F020160
:103D0000C7510301276F020100510301286F02010F
:103D100001510301296F0201025103012A6F0201BF
:103D2000035103012B6FDDEC05F033510201C86F25
:103D3000030134510201C96F030135510201CA6FF9
:103D4000030136510201CB6FC851C46FC951C56F11
:103D5000CA51C66FCB51C76FC453C553C653C7337F
:103D6000C633C533C433C733C633C533C433C7338F
:103D7000C633C533C433C733C633C533C4330F0E5C
:103D8000C717010EC45F000EC55B000EC65B000EB8
:103D9000C75BC551B06EC451AF6EB886AC94AC9CD5
:103DA000AC8AAC98AB8EAB88949C9F8A9D8A9F8886
:103DB0009D98C551766EC451756E70867294729CD2
:103DC000728A72987188939CA58AA588718EA38A3D
:103DD000A398A66B1200C69EC69CC68AC688C696C5
:103DE000C694C682C690C79EC79C6C9E6C9C6C8A0B
:103DF0006C886C966C946C826C906D8E6D9C020ECF
:103E00000301416F1AEC00F012008A888A8A020EC0
:103E10000301416F1AEC00F0010E0201B76FB751B8
:103E2000020838E3D06B78EC10F0D06BD16B35EC36
:103E300010F0D06B2BEC10F0D06BDDEC0FF0020E1D
:103E4000D06F56EC10F0D06BD2EC0FF0D06B40EC92
:103E500010F0D06BE8EC0FF0D06B6CEC10F0D06B86
:103E600061EC10F0D06B20EC10F0010ED06F0AEC7A
:103E700010F0D06BFEEC0FF0010ED06FF3EC0FF0F2
:103E8000050ED06F4BEC10F0020ED06F15EC10F059
:103E9000B72BC5D7060E0301546F556B4CEC01F0E0
:103EA00058510201CC6F030159510201CD6FF40E3C
:103EB000C46F010EC56F080EC66FC76BC86B220EAC
:103EC000C96FCA6BCB6BC00ECE6FCF6BC651C4250A
:103ED000D06FC751D56FC551D523D551D16FD26B96
:103EE000D36BD5AF02D0D207D307CC510301206FDB
:103EF0000201CD510301216F226B0201CDAF02D02F
:103F0000030122070301236B0201CDAF02D003019D
:103F100023070201C8510301246F0201C9510301A3
:103F2000256F0201CA510301266F0201CB51030123
:103F3000276F9EEC05F028510201D66F030129512D
:103F40000201D76F03012A510201D86F03012B51DF
:103F50000201D96FD051D627D151D723D251D823BE
:103F6000D351D923CE51246FCF51256F266B276BA8
:103F7000CFAF02D026072707D6512427D7512523B4
:103F8000D8512623D951272317EC01F05C51626FD9
:103F90005D51636F07EC01F012007F927D827F9488
:103FA0007D84D08EF28EF28CD58E1200C96BCA6BD6
:103FB000C86BC751EA6EC651C825E96EEF50CB6F8A
:103FC000CB51CC6F87EC0FF0CD51CB6F410ECB6155
:103FD00001D003D0370ECB5F02D0300ECB5F100E76
:103FE000CB6501D01200040EFF0B05E0D890C93755
:103FF000CA37FF0FF9D7CB51C927D8B0CA2BC82B66
:10400000D8D79DB103D0586B596B9D81975304E06D
:10401000D00E586F070E596F000E5865596701D0C2
:1040200004D05853D8B459075807585307E1595387
:1040300005E1DEEC0BF0C80E586F596BC4530AE172
:10404000010E766305D0775103E150EC18F002D0F1
:104050005BEC18F0C405D8A41200010E766305D0FD
:10406000775103E1E4EC0EF012007BEC1BF0120040
:1040700006EC00F0230EAE6316D0CC6B9251C96FE4
:10408000CC51CA6FAFEC00F0CD6FCD530CE0925124
:10409000C96FCC51CA6FAFEC00F00301406FCEEC9A
:1040A00001F0CC2BEBD7240EAE6316D0CC6B935122
:1040B000C96FCC51CA6FAFEC00F0CD6FCD530CE09F
:1040C0009351C96FCC51CA6FAFEC00F00301406F40
:1040D000CEEC01F0CC2BEBD7200E0301406FCEECE1
:1040E00001F0200E0301406FCEEC01F0C86B90513F
:1040F000C96FC851CA6FAFEC00F0CB6FCB530CE067
:104100009051C96FC851CA6FAFEC00F00301406F06
:10411000CEEC01F0C82BEBD7C46B9151C96FC451E1
:10412000CA6FAFEC00F0C76FC7530CE09151C96F75
:10413000C451CA6FAFEC00F00301406FCEEC01F048
:10414000C42BEBD72D0E0301406FCEEC01F0280EEF
:104150000301406FCEEC01F0AF510301406FCEEC94
:1041600001F0290E0301406FCEEC01F00D0E0301AA
:10417000406FCEEC01F00A0E0301406FCEEC01F06F
:10418000030E0301416F1AEC00F0240E0201AE632E
:1041900005D0640E0301416F1AEC00F0BDEC01F094
:1041A000120002019DB304D0640E5A6F5B6B9D83B5
:1041B000E4EC18F0ED516E6FEE516F6FFF0E6E6311
:1041C00004D06F51FF0AD8B4BDD1975308E0640EF4
:1041D0005A6F5B6B640E546F556BDEEC0BF07151D4
:1041E0006F5D02E170516E5D22E2B35309E16E51E1
:1041F000566F6F51576F010E9A6FFA0E546F556BD1
:104200007051C46F7151C56FC66BC76B6E51C86F6B
:104210006F51C96FCA6BCB6BC851C45FC951C55BC5
:10422000CA51C65BCB51C75B010EB36F28D0B30533
:1042300009E16E51566F6F51576F010E9A6FFA0E6A
:10424000546F556B6E51CC6F6F51CD6FCE6BCF6B82
:104250007051C86F7151C96FCA6BCB6BC851CC5FBD
:10426000C951CD5BCA51CE5BCB51CF5BCC51C46F32
:10427000CD51C56FCE51C66FCF51C76FB36BC4510F
:104280000301206F0201C5510301216F0201C651D4
:104290000301226F0201C7510301236F5E0E246FD9
:1042A000256B266B276B9EEC05F028510201C86F29
:1042B000030129510201C96F03012A510201CA6F8A
:1042C00003012B510201CB6FC851C46FC951C56F97
:1042D000CA51C66FCB51C76F000E00090009FF0B12
:1042E00006E0C735C46BC56BC66BC76B03D0040E45
:1042F000C86FC85307E0D890C733C633C533C4333B
:10430000C807F8D70C511C6F0D511D6F0E511E6F51
:104310000F511F6F000EC75D08E1000EC65D05E17D
:10432000FF0EC55D02E1FF0EC45DD8B099D0C45147
:104330000301206F0201C5510301216F0201C65123
:104340000301226F0201C7510301236F500E246F36
:10435000C30E256F266B276B9EEC05F028510201DA
:10436000C86F030129510201C96F03012A510201DB
:10437000CA6F03012B510201CB6FC851C46FC951E1
:10438000C56FCA51C66FCB51C76F000E0009000937
:10439000FF0B06E0C735C46BC56BC66BC76B03D09C
:1043A000100EC86FC85307E0D890C733C633C53363
:1043B000C433C807F8D7C451C86FC551C96F95EC4D
:1043C0000FF0D0511C6F1D6B1E6B1F6B1C51030136
:1043D000206F02011D510301216F02011E510301D3
:1043E000226F02011F510301236F320E246F256BD0
:1043F000266B276B9EEC05F0285102011C6F030110
:10440000295102011D6F03012A5102011E6F030190
:104410002B5102011F6F1C510301206F02011D511E
:104420000301216F02011E510301226F02011F517E
:104430000301236F430E246F256B266B276B9EECC5
:1044400005F0285102011C6F0301295102011D6F63
:1044500003012A5102011E6F03012B5102011F6F3C
:10446000000EC75D08E1000EC65D05E1000EC55DEA
:1044700002E1320EC45D2DE2190E1C6F1D6B1E6B26
:104480001F6B1C510301206F02011D510301216F9D
:1044900002011E510301226F02011F510301236F0C
:1044A000430E246F256B266B276B9EEC05F028517D
:1044B00002011C6F0301295102011D6F03012A51E2
:1044C00002011E6F03012B5102011F6F320E546F48
:1044D000556B1F510F5D08E11E510E5D05E11D5129
:1044E0000D5D02E11C510C5D08E20C511C6F0D5179
:1044F0001D6F0E511E6F0F511F6FB351CC6F1C51AA
:10450000CD6F1D51CE6F1E51CF6F1F51D06FA7ECD5
:104510000EF070516E630ED071516F630BD050EC82
:1045200018F0000E5A655B6701D004D05A53D8B416
:104530005B075A075A53D8A412005B53D8A4120041
:10454000946B1200946B1200DEEC0BF0E4EC18F0AC
:10455000ED516E6FEE516F6FFF0E6E6303D06F51B2
:10456000FF0A09E07251706F7351716F030E946FFF
:10457000DFEC1BF01200210E6C656D6701D005D0D9
:10458000210ECC6FCD6BF8EC0BF0010ECC6F0C5103
:10459000CD6F0D51CE6F0E51CF6F0F51D06FA7EC75
:1045A0000EF012000201A1519E63A16302D0010E20
:1045B000A06F9E51A16F9E530AE09E050BE0020E74
:1045C0009E6301D00AD0030E9E630CD009D0D2ECBA
:1045D00010F008D0B6EC16F005D03AEC13F002D08B
:1045E00082EC12F0A06B1200DEEC0BF0E4EC18F0A1
:1045F000ED516E6FEE516F6FFF0E6E6303D06F5112
:10460000FF0A09E07451706F7551716F030E946F5A
:10461000DFEC1BF01200210E6C656D6701D005D038
:10462000210ECC6FCD6BF8EC0BF0CC6B0C51CD6F39
:104630000D51CE6F0E51CF6F0F51D06FA7EC0EF012
:104640001200ABB402D0ABA204D0AB98AB9EAB8E41
:10465000AB8871B402D071A212007198719E718EF4
:1046600071881200D38C9B8C7CEC1DF024EC1CF028
:1046700075EC1DF0EBEC1EF0ADEC1DF005EC1FF041
:1046800018EC1EF0CDEC1FF038EC20F0E4EC18F044
:10469000ED516E6FEE516F6F120002019C05D8A4B0
:1046A00012005E0EC46FC56BC66BC76BC4510301AD
:1046B000206F0201C5510301216F0201C6510301A0
:1046C000226F0201C7510301236F320E246F256B45
:1046D000266B276B9EEC05F028510201CC6F03017D
:1046E00029510201CD6F03012A510201CE6F03014E
:1046F0002B510201CF6FCC51C46FCD51C56FCE513C
:10470000C66FCF51C76F50EC18F0020E0301416F16
:104710001AEC00F082A0FED70201C96B320E74259C
:10472000C86F7551C923C8516E5DC9516F636F5D04
:104730003FE3320E725DCA6F72593208735DCB6F00
:104740006E51CA5D6F51CB63CB5D32E3B30518E1A7
:10475000DC6BC451DD6FC551DE6FC651DF6FC751D1
:10476000E06FCCEC0EF0020E0301416F1AEC00F08A
:1047700082A0FED7010E0201CC6F9AEC00F018D097
:10478000010EDC6FC451DD6FC551DE6FC651DF6FA6
:10479000C751E06FCCEC0EF0020E0301416F1AEC32
:1047A00000F082A0FED7010E0201CC6F9AEC00F05F
:1047B000010E766305D0775103E150EC18F012003A
:1047C0005BEC18F0120002015453D8A412005553A8
:1047D000D8A41200320E546F556B74516E5D755132
:1047E0006F636F5D4FE36E51725D6F517363735D05
:1047F00049E3940501E107D0020E946301D003D090
:10480000030E94633DD09A5303E09A0508E012002A
:104810006E51566F6F51576F010E9A6F1200B305AC
:1048200015E16E51565D6F515763575D27E36E5129
:10483000565DC46F6F515759C56F0D0EC55D02E1CE
:10484000AC0EC45D1BE2010E986F18D056516E5D20
:1048500057516F636F5D12E356516E5DC66F5751CE
:104860006F59C76FC651C46FC751C56F0D0EC55D77
:1048700002E1AC0EC45D02E2010E986F9A6B120069
:104880009A6B12009A6B1200010E0201DD6FE10EAD
:10489000DC6F030EDE6FDF6B040EE06F0DEC07F0D4
:1048A0001200010E0201DD6FE10EDC6F6C51DE6F54
:1048B0006D51DF6F040EE06F0DEC07F01200010E7A
:1048C0000201DD6FE10EDC6FDE6BDF6B040EE06F6B
:1048D0000DEC07F0AF510101E46F1200010E02016F
:1048E000DD6FE10EDC6F6A51DE6F6B51DF6F040E1E
:1048F000E06F0DEC07F01200E4EC18F0ED516E6F74
:10490000EE516F6F010EDD6FE10EDC6F6E51DE6FE9
:104910006F51DF6F040EE06F0DEC07F01200010E17
:104920000201DD6FE10EDC6F7251DE6F7351DF6FDC
:10493000040EE06F0DEC07F01200010E0201C66FCD
:10494000E10EC56F9151C76FFDEC1BF0300EC46FC7
:10495000B45302E0C483B46BD0B202D0C481D0821D
:10496000C4510101E46F1200BAEC1BF0C651886F0C
:10497000C751896F010EDD6FE10EDC6F8851DE6F6C
:104980008951DF6F040EE06F4FEC0DF01200010E45
:104990000201DD6FE10EDC6F7851DE6F7951DF6F60
:1049A000040EE06F0DEC07F01200010E02017663B9
:1049B00006D0775104E1570EC46F040EC56F7653CD
:1049C00004E1775302E1C46BC56B010EDD6FE10EAC
:1049D000DC6FC451DE6FC551DF6F040EE06F0DEC6C
:1049E00007F01200010E0201DD6FE10EDC6F745161
:1049F000DE6F7551DF6F040EE06F0DEC07F01200F3
:104A0000060E0201946FED6B13EC0EF0FA516E6F0F
:104A1000FB516F6F000EC76F570EC66FD6EC1FF0BD
:104A2000C951C46FCA51C56F000EC465C56701D0B6
:104A300010D0C5BF0ED0010EDC6FC451DD6FC55163
:104A4000DE6FDF6BE06BC5AF02D0DF07E007CCECB9
:104A50000EF0C5AF17D0DC6BC451DD6FC551DE6FF2
:104A6000DF6BE06BC5AF02D0DF07E007DD1FDE1FA5
:104A7000DF1FE01FDD3F04D0DE3F02D0DF4BE02B25
:104A8000CCEC0EF0020E0301416F1AEC00F082A094
:104A9000FED7010E0201DD6FE10EDC6F6E51DE6F9D
:104AA0006F51DF6F040EE06F0DEC07F0010EB06F79
:104AB000120082A21DD0030E0201946F6851706F24
:104AC0006951716F7551715D02E17451705D04E25D
:104AD0007451706F7551716F7151735D02E1705156
:104AE000725D04E27251706F7351716FDFEC1BF0F5
:104AF000010E0201DD6FE10EDC6F7051DE6F71514E
:104B0000DF6F040EE06F0DEC07F0120082A203D0FD
:104B1000010E0201946F010E0201DD6FE10EDC6FE8
:104B20008851DE6F8951DF6F040EE06F4FEC0DF09E
:104B30001200020168516A6F69516B6F0A0E6A5D5B
:104B400005E26B6703D00A0E6A6F6B6B640E6A65D1
:104B50006B6701D003D0640E6A6F6B6BDEEC0BF0F9
:104B6000030E966F9651CD6F6A51CE6FA1EC09F08E
:104B7000010EDD6FE10EDC6F6A51DE6F6B51DF6F8E
:104B8000040EE06F0DEC07F0120082A203D0020EBB
:104B90000201946F010E0201DD6FE10EDC6F88519E
:104BA000DE6F8951DF6F040EE06F4FEC0DF01200E5
:104BB00002019805D8B4986B946BBAEC1BF0C651FF
:104BC000886FC751896F010EDD6FE10EDC6F885170
:104BD000DE6F8951DF6F040EE06F4FEC0DF01200B5
:104BE000020195519463956302D0010E976F945121
:104BF000956F945312E0940514E0020E946301D073
:104C000017D0030E946301D01AD0050E946301D01F
:104C10001DD0060E946321D01200C46B01EC20F06D
:104C2000120082A203D0A4EC22F01200946B1200B6
:104C300082A203D0F4EC22F01200946B120082A244
:104C400003D0D1EC20F01200946B120082A203D0AA
:104C5000D2EC22F01200946B1200946B956B120050
:104C6000020168516C6F69516D6F6C51CC6F6D5161
:104C7000CD6FF8EC0BF0010EDD6FE10EDC6F6851CB
:104C8000DE6F6951DF6F040EE06F0DEC07F012006C
:104C90005C6AA00E5D6E5E6A5F6A5C500201F16F35
:104CA0005D50F26F5E50F36F5F50F46FE3EC0DF008
:104CB000F7515C6FF8515D6FFF0E5C6303D05D517F
:104CC000FF0A05E0570E5C6F040E5D6F02D05C6B4F
:104CD0005D6B010EDD6FE10EDC6F5C51DE6F5D51CF
:104CE000DF6F040EE06F0DEC07F01200010E020101
:104CF000DD6FE10EDC6F6851DE6F6951DF6F040E0E
:104D0000E06F0DEC07F0010E9F6FB06F050E946F12
:104D10009E6B010EA06F1200010E0201DD6FE10E0D
:104D2000DC6F6851DE6F6951DF6F040EE06F0DECD0
:104D300007F09F6B050E946F9E6B010EA06F120023
:104D400002016851726F6951736F7351230802E158
:104D50007251870804E2870E726F230E736F030E81
:104D6000735D02E1890E725D04E2890E726F030EBB
:104D7000736FFF0E7A6303D07B51FF0A0AE0735111
:104D80007B5D02E172517A5D04E27A51726F7B5170
:104D9000736F060E966F9651CD6F7351CE6FA1EC67
:104DA00009F0070E966F9651CD6F7251CE6FA1EC40
:104DB00009F0010EDD6FE10EDC6F7251DE6F735191
:104DC000DF6F040EE06F0DEC07F012000201685176
:104DD000746F6951756F7551230802E1745187082A
:104DE00004E2870E746F230E756F030E755D02E18A
:104DF000890E745D04E2890E746F030E756F7C5327
:104E000002E17D530AE07D51755D02E17C51745DE4
:104E100004E27C51746F7D51756F080E966F965148
:104E2000CD6F7551CE6FA1EC09F0090E966F9651BA
:104E3000CD6F7451CE6FA1EC09F0010EDD6FE10E64
:104E4000DC6F7451DE6F7551DF6F040EE06F0DEC97
:104E500007F0120002019805D8B4986B946BBAEC75
:104E60001BF0C651886FC751896F010EDD6FE10ECF
:104E7000DC6F8851DE6F8951DF6F040EE06F4FECFD
:104E80000DF012000201946B410E5A6001D003D064
:104E90005A505A0807E2610E5A6001D00DD05A509C
:104EA0007A080AE35A50AF6F010E966F9651CD6F94
:104EB000AF51CE6FA1EC09F0010EC56FE10EC46FCA
:104EC000000EC76F570EC66F10EC1CF0010E976FE7
:104ED00012000201C46B01EC20F0010ECC6F9AECC1
:104EE00000F040EF70F01200E4EC18F0ED516E6F3E
:104EF000EE516F6F140E7C5DC46F7C5914087D5D9C
:104F0000C56FC4516E5DC5516F636F5D16E3C76BAE
:104F1000140E7A25C66F7B51C7236E51C65D6F5143
:104F2000C763C75D0AE3DEEC0BF09B6B0101FE6B10
:104F3000FF6B0201986B9A6B12000101FE53D8A41B
:104F40001200FF53D8A4120002019B5307E09B05F7
:104F5000D8B47AD0020E9B63A2D08DD050EC18F05A
:104F6000020E0301416F1AEC00F082A0FED70D0E75
:104F70000201DC6FB9EC09F0190E1C6F1D6B1E6B82
:104F80001F6B1C510301206F02011D510301216F92
:104F900002011E510301226F02011F510301236F01
:104FA000620E246F5D0E256F010E266F000E276FB7
:104FB0009EEC05F0285102011C6F030129510201EA
:104FC0001D6F03012A5102011E6F03012B510201C3
:104FD0001F6F1C510301246F02011D510301256F36
:104FE00002011E510301266F02011F510301276FA9
:104FF000280E286F296B2A6B2B6BDDEC05F03351E3
:1050000002011C6F0301345102011D6F0301355170
:1050100002011E6F0301365102011F6F7D516F5D4A
:1050200002E17C516E5D02E2010EB36F6F517B5D58
:1050300002E16E517A5DD8A0B36B010E9B6F960EA4
:105040000101FE6FFF6B2BD050EC18F0020E030134
:10505000416F1AEC00F082A0FED70201B30502E115
:10506000B36B02D0010EB36F020E9B6F960E01015F
:10507000FE6FFF6B14D0DEEC0BF050EC18F0020E5C
:105080000301416F1AEC00F082A0FED702019B6B76
:105090000101FE6BFF6B0201946B986B9A6B02012E
:1050A000B351CC6F1C51CD6F1D51CE6F1E51CF6FC0
:1050B0001F51D06FA7EC0EF01200010E0201766FA7
:1050C000776B040E966F9651CD6F7651CE6FA1EC33
:1050D00009F0945302E1010E976F010EDD6FE10EAE
:1050E000DC6F6851DE6F6951DF6F040EE06F0DEC0D
:1050F00007F012000201766B776B040E966F9651E3
:10510000CD6F7651CE6FA1EC09F0010EDD6FE10E8F
:10511000DC6F6851DE6F6951DF6F040EE06F0DECDC
:1051200007F09453D8A41200010E976F12000201E9
:105130006851786F6951796F640E7865796701D02D
:1051400003D0640E786F796B050E966F9651CD6F14
:105150007851CE6FA1EC09F0DEEC0BF0010EDD6FA3
:10516000E10EDC6F7851DE6F7951DF6F040EE06F76
:105170000DEC07F0010E976F12000C0E0201686330
:1051800002D069513CE0180E686302D069513EE0DC
:10519000300E686302D0695140E0600E686302D04F
:1051A000695142E0900E686302D0695144E0C00E3C
:1051B000686302D0695146E0200E686304D0010E96
:1051C000696301D045D0800E686304D0010E696325
:1051D00001D045D0300E686304D0020E696301D05F
:1051E00044D0400E686304D0020E696301D044D0FD
:1051F000800E68634DD0040E69634AD043D0B00E70
:10520000006F040E016F026B036B42D0600E006FE3
:10521000090E016F026B036B3BD0C00E006F120EC4
:10522000016F026B036B34D0800E006F250E016F8F
:10523000026B036B2DD0400E006F380E016F026BB6
:10524000036B26D0006B4B0E016F026B036B20D0FB
:10525000800E006F700E016F026B036B19D0006B34
:10526000960E016F026B036B13D0C00E006FDA0E47
:10527000016F026B036B0CD0006BE10E016F026BD0
:10528000036B06D0006BC20E016F010E026F036B41
:1052900082EC10F0C46B01EC20F0010ECC6F9AECA4
:1052A00000F0F29EFF0012000201C26BC381800E6B
:1052B000006F250E016F026B036B32EC23F0986BCD
:1052C0009851996F946B010E976F9A6B546B556B55
:1052D0009B6B0101FE6BFF6B010E0301416F1AEC2A
:1052E00000F021EC23F082B204D0010E0201B46F71
:1052F000946B050E0201946301D006D0E4EC18F023
:10530000ED516E6FEE516F6F976B050E946301D088
:10531000D6D280BC02D0898201D08992AB05D8A4B4
:10532000CED2AB6B0451440809E10551420806E1B5
:105330000651470803E10751000825E004515708CA
:1053400009E10551460806E10651470803E1075106
:1053500000081CE00451410809E10551530806E129
:105360000651470803E10751000813E004515408AF
:1053700015E10551530812E1065147080FE10751A5
:1053800000080AE00BD0BDEC28F008D069EC27F04B
:1053900005D042EC27F002D02AEC27F0210EAC63B6
:1053A000ADD0AF51AD63AAD0045144080AE1055114
:1053B000420807E106514D0804E107510008D8B43E
:1053C0007DD0045157080AE10551460807E106510E
:1053D0004D0804E107510008D8B473D004515208B5
:1053E0000AE10551460807E106514D0804E107515D
:1053F0000008D8B469D0045146080AE105514D08A7
:1054000007E106514D0804E107510008D8B45FD008
:10541000045142080AE105514D0807E106514D08C3
:1054200004E107510008D8B455D00451430809E1FC
:1054300005514D0806E106514D0803E107510008EA
:105440004CE00451540809E10551530806E10651A6
:105450004D0803E10751000843E00451500809E1F9
:105460000551530806E106514D0803E107510008B4
:105470003AE00451530809E10551420806E106519A
:105480004D0803E10751000831E00451520809E1D9
:105490000551420806E106514D0803E10751000895
:1054A00028E0045150082AE10551420827E106513D
:1054B0004D0824E1075100081FE020D0BDEC28F082
:1054C0001DD069EC27F01AD0BFEC0EF017D086EC97
:1054D00025F014D0C5EC25F011D099EC25F00ED0B4
:1054E000D8EC25F00BD030EC26F008D05DEC28F09D
:1054F00005D07AEC28F002D097EC28F0AE51AC63DE
:10550000DED1AF51AD63DBD1C383045144080AE15E
:105510000551420807E106514D0804E10751000812
:10552000D8B46ED1045157080AE10551460807E185
:1055300006514D0804E107510008D8B464D1045164
:1055400052080AE10551460807E106514D0804E1F9
:1055500007510008D8B45AD1045146080AE1055150
:105560004D0807E106514D0804E107510008D8B481
:1055700050D1045142080AE105514D0807E1065196
:105580004D0804E107510008D8B446D1045143083E
:105590000AE105514D0807E106514D0804E10751A4
:1055A0000008D8B43CD1045154080AE1055153080D
:1055B00007E106514D0804E107510008D8B432D183
:1055C000045150080AE10551530807E106514D08FE
:1055D00004E107510008D8B428D104514C080AE16D
:1055E00005514D0807E106514D0804E10751000837
:1055F000D8B41ED1045146080AE105514C0807E110
:1056000006514D0804E107510008D8B414D10451E3
:1056100042080AE105514C0807E106514D0804E132
:1056200007510008D8B40AD1045153080AE10551C2
:10563000420807E106514D0804E107510008D8B4BB
:1056400000D1045152080AE10551420807E1065110
:105650004D0804E107510008D8B4F6D004515008B1
:105660000AE10551420807E106514D0804E10751DE
:105670000008D8B4ECD0045158080AE105514C0890
:1056800007E106514D0804E107510008D8B4E2D003
:1056900004514C080AE10551520807E106514D0832
:1056A00004E107510008D8B4D8D0045153080AE1E6
:1056B0000551520807E106514D0804E10751000861
:1056C000D8B4CED0045142080AE10551520807E18E
:1056D00006514D0804E107510008D8B4C4D0045164
:1056E00046080AE10551520807E106514D0804E158
:1056F00007510008D8B4BAD0045143080AE1055153
:10570000520807E106514D0804E107510008D8B4DA
:10571000B0D004514D080AE10551520807E1065185
:105720004D0804E107510008D8B4A6D004514B0835
:105730000AE10551520807E106514D0804E10751FD
:105740000008D8B49CD0045150080AE10551520811
:1057500007E106514D0804E107510008D8B492D082
:10576000045141080AE10551520807E106514D086C
:1057700004E107510008D8B488D0045156080AE162
:105780000551520807E106514D0804E10751000890
:10579000D8B47ED0045150080AE10551430807E10E
:1057A00006514D0804E107510008D8B474D00451E3
:1057B00052080AE10551430807E106514D0804E18A
:1057C00007510008D8B46AD0045153080AE10551C2
:1057D000430807E106514D0804E107510008D8B419
:1057E00060D004514408D8A462D005515208D8A40E
:1057F0005ED006514D085BE10751000855E057D0D7
:10580000BDEC28F055D069EC27F052D0BFEC0EF07B
:105810004FD086EC25F04CD0C5EC25F049D099EC62
:1058200025F046D0D8EC25F043D030EC26F040D01F
:1058300059EC25F03DD0A0EC26F03AD0E6EC26F06D
:1058400037D05DEC28F034D07AEC28F031D097ECEA
:1058500028F02ED000EC25F02BD07CEC24F028D0C2
:1058600051EC24F025D0F2EC24F022D08FEC24F07F
:105870001FD06EEC24F01CD044EC24F019D0D5ECF1
:1058800024F016D0C7EC24F013D05FEC24F010D035
:105890009DEC24F00DD08CEC26F00AD076EC26F0AE
:1058A00007D048EC26F004D0B4EC24F001D0C39328
:1058B0000201C3A304D0AE51AC6301D07E84718ECB
:1058C000A38A84B630D0618C618EC16BC16B81BEFE
:1058D000C12BD890C137C46B81BCC42BC451C11338
:1058E000C251C163C26301D0C381C151C26FC3A1A0
:1058F0001BD0C391C10504E0020EC1630BD005D0DB
:1059000082A212D0010E946F0FD082A20DD0020E8F
:10591000946F0AD0986B946BBAEC1BF0C651886FE9
:10592000C751896F01D0C3819853D8B4E3EC23F0F9
:1059300099519863996303D0010E9C6F01D09C6BC1
:10594000985306E0980507E0020E986309D006D048
:10595000F0EC25F005D04DEC23F002D074EC27F0EC
:1059600002019851996F9DB802D0ACB28994A3B846
:10597000B8D472B28996B5D4D8CF05F0E0CF06F08E
:10598000EACF07F0E9CF08F0F4CF09F0F3CF0AF03F
:105990000B6EF2A413D0F2AA11D0000E0201B5656D
:1059A00001D0B507EBEC03F06BEC02F017EC01F063
:1059B0005C51626F5D51636F07EC01F09EA006D0F1
:1059C0009DA004D0CD90BDEC01F09E90A1A21DD071
:1059D000A0A21BD0B190000E0101FE65FF6701D0AF
:1059E00004D0FE53D8B4FF07FE07000E0201546531
:1059F000556701D004D05453D8B455075407E00E6E
:105A0000B26EB10EB36EB180A1927EA203D06CECE7
:105A100003F07E927EA40AD07DEC02F00201A75131
:105A20000301376F386B50EC03F07E940B500AC0C3
:105A3000F3FF09C0F4FF08C0E9FF07C0EAFF06C092
:105A4000E0FF05C0D8FF100002019D919D93000E5C
:105A5000916F010E906F020E926F030E936F9D95E2
:105A60009D979D999D9B9D9D9D9F300E576E300EDD
:105A7000586E300E596E300E5A6E5B6A300E010150
:105A8000E16F300EE26F300EE36F300EE46FE56BC6
:105A90000201B06BB56BDB0E286F0F0E296FC90EBC
:105AA0002A6F3F0E2B6FD90E2C6F0F0E2D6F490EE4
:105AB0002E6F400E2F6FDB0E306F0F0E316FC90E41
:105AC000326F3F0E336F540E346FF80E356F2D0E5C
:105AD000366F400E376F450E386F160E396F3A6BC2
