:020000040000FA
:04000000DAEF3CF007
:0800080032EF3DF00201CF6B65
:1000100012000201D86B120092EF3CF098530000DE
:1000200001E11200030EFF0FD8A4FDD70000982FA6
:10003000F9D712008753000001E11200FD0E000005
:1000400000000000000000000000000000000000B0
:1000500000000000000000000000000000000000A0
:100060000000000000000000000000000000000090
:100070000000000000000000000000000000000080
:100080000000000000000000000000000000000070
:100090000000000000000000000000000000000060
:1000A0000000000000000000000000000000000050
:1000B00000000000FF0FD8A4C2D70000000000001D
:1000C0000000000000000000000000000000000030
:1000D0000000000000000000000000000000000020
:1000E0000000000000000000000000000000000010
:1000F0000000000000000000000000000000000000
:1001000000000000000000000000000000000000EF
:1001100000000000000000000000000000000000DF
:100120000000000000000000000000000000872F19
:1001300085D712002453000001E11200E40E0000F4
:1001400000000000FF0FD8A4FAD70000242FF6D734
:100150001200610EC66101D007D0C6517A0804E3CF
:10016000DF0EC615C76F1200C651C76F1200FA0E18
:100170000301876F1AEC00F0FA0E876F1AEC00F09B
:10018000FA0E876F1AEC00F0FA0E876F1AEC00F087
:100190000201F62FECD71200C26BC36BC46BC56BA8
:1001A000C46BC56BBA51BE03F350C26FF450C36F3A
:1001B000BB51BE03F350C327F450C423D8B0C52BA2
:1001C000BC51BE03F350C427F450C523BD51BE0338
:1001D000F350C527BA51BF03F350C327F450C423CB
:1001E000D8B0C52BBB51BF03F350C427F450C5236F
:1001F000BC51BF03F350C527BA51C003F350C42705
:10020000F450C523BB51C003F350C527BA51C103F5
:10021000F350C5271200B06BB16BB26BB36BB46B0C
:10022000B56BB66BB76BB86B200EB815B96FB96705
:100230001200D890B437B537B637B737A837A937D3
:10024000AA37AB37B037B137B237B337AF51B35D39
:1002500008E1AE51B25D05E1AD51B15D02E1AC51D5
:10026000B05D09E3AC51B05FAD51B15BAE51B25B73
:10027000AF51B35BB481B82BD7D702017C510301D6
:10028000A46F02017D510301A56F02017E5103019C
:10029000A66F02017F510301A76F02017F350301A1
:1002A000A733A633A533A43302017F350301A73357
:1002B000A633A533A43302017F350301A733A63348
:1002C000A533A43302017F350301A733A633A53339
:1002D000A433BB0EA26FA451A227000EA36FA55199
:1002E000A32312009C6B9D6B9A5302E19B530EE07B
:1002F0009C4B9D2B010E9A5DA06F9A5901089B5D46
:10030000A16FA0519A17A1519B17EED79C519E6FD8
:100310009D519F6F120098516F6E6DA0FED76F5068
:10032000996F12008A51906F8B51916F8851926F23
:100330008951936F0201E40502E18A9801D08A9AFB
:10034000010E0301986F0EEC00F0966B976B9751BE
:10035000800A986F8D51800A985D02E18C51965DFC
:100360000DE29151EA6E9051E96EEF50986F8BEC6F
:1003700001F0904B912B964B972BE9D7946B956B93
:100380009551800A966F8F51800A965D02E18E51D9
:10039000945D0EE2986B8BEC01F09351EA6E9251F2
:1003A000E96E9951EF6E924B932B944B952BE8D7B6
:1003B000010E986F0EEC00F00201E40502E18A885C
:1003C00012008A8A12000201D851D96FD86B000E30
:1003D000D965120089848986020E0301876F1AECA1
:1003E00000F09D88A3881200D59E8451FF08866F77
:1003F000FF0E85578651846F8551D76E8451D66E16
:10040000F294F28AD58E1200200E786301D013D0B8
:10041000090E786301D00FD00B0E786301D00BD09A
:100420000A0E786301D007D00D0E786301D003D097
:100430000C0E786303D0010E796F1200796B1200F5
:10044000706B716B726B736B749174937569010E41
:10045000766F752B6C51EA6E6B517525E96EEF5016
:10046000776F76A108D07751786F04EC02F079535A
:10047000F0E1080E766F76A70BD0020E766F2D0E88
:10048000776302D07481E5D72B0E776301D0E1D773
:1004900076A30ED06F530AE1300E776305D0080EB5
:1004A0006F6F040E766FD5D70A0E6F6F100E766FD2
:1004B00076A508D0100E766F780E776303D0100EF5
:1004C0006F6FC7D77751C66FA9EC00F0C751776F30
:1004D0000A0E6F6507D0410E776101D003D0370E49
:1004E000775F02D0300E775F77516F6101D075D0A2
:1004F0007051786F7151796F72517A6F73517B6F50
:100500007051BA6F7151BB6F7251BC6F7351BD6F37
:100510006F51BE6FBF6BC06BC16BCCEC00F0C251B2
:10052000806FC351816FC451826FC551836F8051F9
:10053000706F8151716F8251726F8351736F7751F8
:10054000806F816B826B836B805170278151712327
:100550008251722383517323806B7051A86F715144
:10056000A96F7251AA6F7351AB6F73AF0CD0A81FF4
:10057000A91FAA1FAB1FA82BD8B4A92BD8B4AA2B8C
:10058000D8B4AB2B802B6F51AC6FAD6BAE6BAF6B38
:100590000BEC01F0B4517C6FB5517D6FB6517E6F9D
:1005A000B7517F6F80A10BD07C1F7D1F7E1F7F1FE7
:1005B0007C2BD8B47D2BD8B47E2BD8B47F2B7C5128
:1005C000785D09E17D51795D06E17E517A5D03E157
:1005D0007F517B5DD8A474833CD76D5302E16E5389
:1005E00011E07551786F776B6B5178276C517723D9
:1005F0006E51EA6E6D51E96EE92A7751EF6EE906A8
:100600007851EF6E74A305D07069716972697F0EBD
:10061000736F74A117D070510008776F000E786F58
:100620007151785B000E796F7251795B000E7A6FB1
:1006300073517A5B7751706F7851716F7951726F26
:100640007A51736F7051776F7151786F7251796F02
:1006500073517A6F12006D5130090101EB6F010E79
:100660000201E36F03016B51886F6C51896F010EBA
:100670008B6FEB0E8A6F010E8C6F8D6B010E8E6F80
:100680008F6B92EC01F012006E5140090101EB6F8B
:10069000010E03016F6F706B6E519A6F9B6B72EC62
:1006A00001F09E51716F9F51726FD8907137723700
:1006B0007251800A736F7051800A735D04E1715149
:1006C0006F6501D00BD00AE301EEEBF0E9506F51FA
:1006D000E926000EEF6E6F4B702BDED76E519A6FCE
:1006E0009B6B72EC01F09E510201E36F03019F517D
:1006F0006F6FD8900201E33703016F370201E32BDC
:1007000003016C51886F6D51896F010E8B6FEB0E79
:100710008A6F010E8C6F8D6B0201E35103018E6FA6
:100720008F6B92EC01F012000201706B716B726BB7
:10073000736B785103016B6F6C6B6D6B6E6B6B51F0
:100740000201706F03016C510201716F03016D5161
:100750000201726F03016E510201736FD88404E1CC
:10076000D88402E1D88405E0706B716B726B736B97
:100770000AD0080EFF0B07E0D89070377137723738
:100780007337FF0FF7D7795103016B6F6C6B6D6B8C
:100790006E6B6B510201701303016C5102017113F6
:1007A00003016D510201721303016E5102017313B3
:1007B000D88404E1D88402E1D88405E0706B716BC1
:1007C000726B736B0AD0080EFF0B07E0D89070377E
:1007D000713772377337FF0FF7D77A5103016B6F99
:1007E0006C6B6D6B6E6B6B510201701303016C517E
:1007F0000201711303016D510201721303016E5165
:1008000002017313000E03016C6FF60E6B6F6D6BBC
:100810006E6B0A0E6F6F20EC02F077510201746F5D
:10082000030178510201756F030179510201766F5E
:1008300003017A510201776F010EDC6F1200010E85
:100840000201E46FE4510208D8A01200010E030176
:100850006C6FA40E6B6F060E6D6F2BEC03F0E42B28
:10086000F1D7010E0201E46FE4510208D8A0120092
:10087000010E03016D6FA40E6C6F060E6E6F44ECDB
:1008800003F0E40504E0020EE46370D031D003010C
:100890006B6B01EEA4F0E9506B51E926EF504C6E02
:1008A0006B2B01EEA4F0E9506B29E926EF506E6F37
:1008B000A40EE96E6B51E926EF504E6E6D6B4D6ADA
:1008C0006E514D12020E6B2701EEA4F0E9506B2918
:1008D000E926EF506E6FA40EE96E6B51E926EF50DA
:1008E000506E6D6B4F6A6E514F12020E6B273ED0E9
:1008F00003016B6B01EEA4F0E9506B51E926EF5058
:100900000101D66F03016B2B01EEA4F0E9506B29B6
:10091000E926EF506E6FA40EE96E6B51E926EF5099
:100920000101D86F03016D6B0101D76B03016E519B
:100930000101D713020E03016B2701EEA4F0E95069
:100940006B29E926EF506E6FA40EE96E6B51E92614
:10095000EF500101DA6F03016D6B0101D96B0301E7
:100960006E510101D913020E03016B270201E42B22
:100970007BD700EE60F0E9500201D651E926D5514F
:10098000EF6ED65312E0D60521E0020ED66301D0F9
:1009900031D0030ED66301D02DD0040ED66301D022
:1009A00029D0050ED66339D038D0210ED56301D0B9
:1009B00007D0230ED56301D003D0240ED56304D015
:1009C000D551DD6FD62B1200D66B1200410ED561CA
:1009D00001D003D0D5515A0807E2610ED56101D08C
:1009E00007D0D5517A0804E3D551DE6FD62B12001B
:1009F000D66B1200410ED56101D00DD0D5515A08E9
:100A00000AE302EE78F0E950020ED65DE926D551F0
:100A1000EF6ED62B1200D66B12000E0ED66502D0EA
:100A2000D66B1200200ED56101D00DD0D5517E08B5
:100A30000AE300EEF6F0E950050ED65DE926D55141
:100A4000EF6ED62B12000D0ED56321D000EEF6F01E
:100A5000E950060ED65DE926EF50E16FF60EE96E1D
:100A6000060ED65DE926000EEF6E060ED65DDB6F34
:100A7000520EE16301D007D0570EE16301D003D0DD
:100A8000500EE16302D0D62B1200D66B12000A0E74
:100A9000D563120000EEF6F0E950050ED65DE926AA
:100AA000D551EF6ED66B7E8212009EAA07D09DAA0A
:100AB00005D0AE500201D56FB9EC04F0A4AA07D05E
:100AC000A3AA05D074500201D56FB9EC04F09EA81A
:100AD00004D09DA802D0A3A808D09EA812009DA86B
:100AE0001200A4A81200A3A812000201D951D861D3
:100AF0000DD001EE00F0E950D851E926EF50DA6F41
:100B0000DA51AD6EDA51736ED82B12009D98A3980E
:100B100012005851000ED8B4576101D007D058BF09
:100B200005D05751BA6F5851606F0BD0571D616F88
:100B3000581D626F612BD8B4622B6151BA6F62513C
:100B4000606F6051BB6FBC6BBD6B60AF02D0BC0708
:100B5000BD07000EBE6F800EBF6FC06BC16BCCECCB
:100B600000F0C2515B6FC3515C6FC4515D6FC551E2
:100B70005E6F5A51000ED8B4596101D007D05ABFE8
:100B800005D05951636F5A51686F0BD0591D696F69
:100B90005A1D6A6F692BD8B46A2B6951636F6A5109
:100BA000686F6851646F656B626B68AF02D06507F0
:100BB00062076251666F6235663365336433633151
:100BC0005B2764515C2365515D2366515E235A5156
:100BD000000ED8B4596101D007D05ABF05D0595181
:100BE000AC6F5A51646F0BD0591D656F5A1D666FFB
:100BF000652BD8B4662B6551AC6F6651646F645138
:100C0000AD6FAE6B626B64AF02D0AE076207636B11
:100C10005B51A86F5C51A96F5D51AA6F5E51AB6FBC
:100C20006251AF6F62AF0CD0AC1FAD1FAE1FAF1FD4
:100C3000AC2BD8B4AD2BD8B4AE2BD8B4AF2B632B20
:100C40000BEC01F0B4515B6FB5515C6FB6515D6F49
:100C5000B7515E6F63A10BD05B1F5C1F5D1F5E1FF2
:100C60005B2BD8B45C2BD8B45D2BD8B45E2B5B5116
:100C70005F6F5C51606F120000EEC4F0E95002013A
:100C8000CF51E92603012651EF6E0201CF2B12004E
:100C900000EEC4F0E9502651276F2751E926EF50A6
:100CA000286F1200010E0301986F0EEC00F0020194
:100CB000CF51D06FCF6B0201D053D8B41200899AB4
:100CC00000EEC4F0E950CF51E926EF50C96EC7A03D
:100CD000FED700EEC4F0E950CF51E926C950EF6EBF
:100CE000CF2BD007898A010E0301986F0EEC00F01C
:100CF000E2D7435309E1445307E1415305E142532D
:100D000003E1516B526B12004151436308D04251D1
:100D1000446305D0940E516F110E526F120043536D
:100D20000BE1445309E1415302E1425305E0280E2F
:100D3000516F230E526F12004251800A536F44517B
:100D4000800A535D02E14351415D15E24151576F05
:100D50004251586F4351596F44515A6F89EC05F015
:100D60005F51496F60514A6F4B6B4C6B60AF1FD046
:100D70004B074C071CD04351576F4451586F41519A
:100D8000596F42515A6F89EC05F05F51536F6051B2
:100D9000546F556B566B60AF02D0550756075351D1
:100DA000496F54514A6F55514B6F56514C6F020168
:100DB00050510301BA6F020151510301BB6F02018F
:100DC00052510301BC6F020153510301BD6F4951E0
:100DD000BE6F4A51BF6F4B51C06F4C51C16FCCECCD
:100DE00000F0C251456FC351466FC451476FC551A2
:100DF000486F4951BA6F4A51BB6F4B51BC6F4C5150
:100E0000BD6F4C35BD33BC33BB33BA334C35BD330A
:100E1000BC33BB33BA334C35BD33BC33BB33BA33CD
:100E20004C35BD33BC33BB33BA334C35BD33BC3327
:100E3000BB33BA334951BE6F4A51BF6F4B51C06F7C
:100E40004C51C16F4C35C133C033BF33BE334C3509
:100E5000C133C033BF33BE334C35C133C033BF336E
:100E6000BE334C35C133C033BF33BE334C35C133D1
:100E7000C033BF33BE33CCEC00F0C251BA6FC351A4
:100E8000BB6FC451BC6FC551BD6F4951BE6F4A5154
:100E9000BF6F4B51C06F4C51C16F4C35C133C03324
:100EA000BF33BE334C35C133C033BF33BE334C3593
:100EB000C133C033BF33BE334C35C133C033BF330E
:100EC000BE334C35C133C033BF33BE33CCEC00F03E
:100ED000C2514D6FC3514E6FC4514F6FC551506FCA
:100EE0004E51BA6F4F51BB6F5051BC6FBD6B50BF6D
:100EF000BD075035BC33BB33BA335035BC33BB337D
:100F0000BA335035BC33BB33BA335035BC33BB3343
:100F1000BA335035BC33BB33BA335035BC33BB3333
:100F2000BA335035BC33BB33BA33020154510301D9
:100F3000BE6F020155510301BF6F020156510301FB
:100F4000C06F020157510301C16FCCEC00F0C251D8
:100F5000536FC351546FC451556FC551566F5351A0
:100F600045275451462355514723565148234F5145
:100F7000BA6F5051536F50355333BA3350355333E2
:100F8000BA3350355333BA3350355333BA334951EA
:100F9000BE6F4A51BF6F4B51C06F4C51C16F4C3542
:100FA000C133C033BF33BE334C35C133C033BF331D
:100FB000BE334C35C133C033BF33BE334C35C13380
:100FC000C033BF33BE334C35C133C033BF33BE3300
:100FD0005351BB6FBC6B53BFBC07BD6B53BFBD0749
:100FE000CCEC00F0C251BA6FC351BB6FC451BC6F9F
:100FF000C551BD6F4951BE6F4A51BF6F4B51C06F54
:101000004C51C16F4C35C133C033BF33BE334C3547
:10101000C133C033BF33BE334C35C133C033BF33AC
:10102000BE334C35C133C033BF33BE334C35C1330F
:10103000C033BF33BE33CCEC00F0C251546FC35148
:10104000556FC451566FC551576F54514D6F55511F
:101050004E6F56514F6F5751506F4E51BA6F4F519F
:10106000BB6F5051BC6FBD6B50BFBD075035BC331B
:10107000BB33BA335035BC33BB33BA335035BC33D2
:10108000BB33BA335035BC33BB33BA335035BC33C2
:10109000BB33BA335035BC33BB33BA335035BC33B2
:1010A000BB33BA33020158510301BE6F02015951DB
:1010B0000301BF6F02015A510301C06F02015B516E
:1010C0000301C16FCCEC00F0C251536FC351546F98
:1010D000C451556FC551566F53514527545146233E
:1010E00055514723565148234651536F4751546F2A
:1010F0004851556F566B48BF5607483555335433E2
:1011000053334835553354335333483555335433BB
:1011100053334835553354335333483555335433AB
:10112000533348355533543353334835553354339B
:101130005331456F5451466F5551476F5651486F63
:101140004451800A536F4251800A535D02E141517C
:10115000435D17E245512808536F230E586F4651DF
:10116000585B5851546F556B566B58AF02D05507AA
:1011700056075351456F5451466F5551476F56515D
:10118000486F48AF04D0456B466B476B486B48517E
:10119000000808E14751000805E14651230802E133
:1011A0004551280848BFD88006E2280E456F230E17
:1011B000466F476B486B4551516F4651526F120055
:1011C0003851F66E3951F76E3A51F86E0900F55004
:1011D0003C6F0900F5503D6F3C513E6F3D513F6FF4
:1011E0001200A69CA6B2FED7F751A96EF851A86EC0
:1011F000A69EA684F991F2BEF981F29E550EA76EC5
:10120000AA0EA76EA682A694F9B1F28EF9A1F29E5B
:101210001200000E3B6307D0800E3C6304D0010E29
:101220003B6F800E3C6F000E396307D0800E3A632F
:1012300004D0010E396F800E3A6F3C51000ED8B4C5
:101240003B6101D019D03CBF17D03A51000ED8B441
:10125000396101D011D03ABF0FD03951416F3A51A5
:10126000426F3B51436F3C51446F79EC06F0515152
:101270003D6F52513E6F69D0000E3B653C6701D017
:1012800002D03CAF20D03A51000ED8B4396101D021
:101290001AD03ABF18D03951416F3A51426F3B1DB5
:1012A000436F3C1D446F432BD8B4442B79EC06F0BC
:1012B000515150083F6F460E5255406F3F513D6FA0
:1012C00040513E6F42D0000E3B653C6701D002D0DA
:1012D0003CAF23D0000E39653A6701D002D03AAF57
:1012E0001CD0391D416F3A1D426F412BD8B4422B9F
:1012F0003B1D436F3C1D446F432BD8B4442B79EC0A
:1013000006F05151B00F3F6F5251406FB90E40235C
:101310003F513D6F40513E6F18D0391D416F3A1D0E
:10132000426F412BD8B4422B3B51436F3C51446F29
:1013300079EC06F0511D3F6F521D406F3F2BD8B422
:10134000402B3F513D6F40513E6F3D513F6F3E51ED
:10135000406F1200D890F4370D0EF427F451F76F58
:10136000F651F86FF1EC08F0F429F76FF551F86FCA
:10137000F1EC08F0120006EC00F003010551266FB5
:101380003CEC06F003010651266F3CEC06F0899A0E
:1013900052EC06F0898A120006EC00F003010551B8
:1013A0002009266F3CEC06F00301266B3CEC06F0AE
:1013B0000301266B3CEC06F0899A52EC06F0898A10
:1013C000010E0301266F48EC06F02851066F076BEB
:1013D0000651076F066B020E266F48EC06F0285187
:1013E00006130651086F0751096F120006EC00F052
:1013F000D00E0301266F3CEC06F00301266B3CEC9B
:1014000006F00301266B3CEC06F0899A52EC06F0DC
:10141000898A010E0301266F48EC06F02851246FDB
:10142000256B2451256F246B020E266F48EC06F0C5
:10143000285124132451266F2551276F1200400E86
:10144000346FA00E356F366B376B3251386F3351B6
:10145000396F3A6B3B6BD890383739373A373B376F
:1014600038513427395135233A5136233B513723EC
:101470003451386F3551396F36513A6F37513B6FB0
:10148000E0EC08F03E51386F3F51396F1200020115
:10149000AA510301246F9AEC00F0F6EC09F02651F2
:1014A000206F2751216F600E2017216B2051226F72
:1014B0002151236F2253EBE12353E9E112000A6B20
:1014C000056B086B400E096F0951035D02E108517D
:1014D000025D07E2D89009330833D8900933083306
:1014E000F3D7085303E10953D8B4120008510A2571
:1014F000066F0951076F055107230651025D075119
:101500000363035D0FE30651025F0751035B08515C
:101510000B6F09510C6FD8900B370C370B510A2702
:101520000C510523D89005330A33D890093308337A
:10153000D89009330833D5D701EE00F0E950D851DF
:10154000E926FF51EF6ED82B1200EE51F46FF251E5
:10155000F56FF351F66FAAEC09F0EF51F46FF0510B
:10156000F56FF151F66FAAEC09F01200A6B2FED7A2
:101570000951A96EA69EA69CA680A8500B6F1200CA
:10158000A6B2FED70951A96EA69EA69CA680A85019
:101590000A6F1200020E246F316B326B336B346BA7
:1015A000356B366B376B386B396B3A6B0201BF5159
:1015B00003013A5D06E10201BE510301396101D028
:1015C00003D002E33AAF6DD024510201E26FE2533F
:1015D000FEE14D5003013C6F4E503D6F3E6B3F6B43
:1015E0004EAE02D03E073F070101D9510301296FDA
:1015F0000101DA5103012A6F2B6B3B6B0101DAAF5A
:1016000003D003012B073B0703013C5129273D5120
:101610002A233E512B233F513B233B512C6F3B351B
:101620002C332B332A3329334F502D6F50502E6FCC
:101630002F6B3B6B50AE02D02F073B070101D751F8
:1016400003013C6F0101D85103013D6F3E6B3F6BBD
:101650000101D8AF03D003013E073F0703013C510E
:101660002D5F3D512E5B3E512F5B3F513B5B3B510C
:10167000306F3B3530332F332E332D332951312703
:101680002A5132232B5133232C5134232D5135270A
:101690002E5136232F51372330513823394B3A2BD3
:1016A00085D7396B3151A86F3251A96F3351AA6F69
:1016B0003451AB6F34AF0CD0A81FA91FAA1FAB1FAA
:1016C000A82BD8B4A92BD8B4AA2BD8B4AB2B392BC0
:1016D0000201BE510301AC6F0201BF510301AD6FA6
:1016E000AE6BAF6B0BEC01F0B451316FB551326F93
:1016F000B651336FB751346F39A10BD0311F321F40
:10170000331F341F312BD8B4322BD8B4332BD8B479
:10171000342B396B3551A86F3651A96F3751AA6FE9
:101720003851AB6F38AF0CD0A81FA91FAA1FAB1F31
:10173000A82BD8B4A92BD8B4AA2BD8B4AB2B392B4F
:101740000201BE510301AC6F0201BF510301AD6F35
:10175000AE6BAF6B0BEC01F0B451356FB551366F1A
:10176000B651376FB751386F39A10BD0351F361FBF
:10177000371F381F352BD8B4362BD8B4372BD8B4F5
:10178000382B3151396F32513A6F35513B6F3651E9
:101790003C6F09EC09F03F51256F4051266F276BD4
:1017A000286B40AF02D027072807500E2527460E8A
:1017B0002623000E2723000E28232551316F2651A2
:1017C000326F120006EC00F0FE510301266F3CEC74
:1017D00006F003010A51266F3CEC06F003010951A3
:1017E000266F3CEC06F003010851266F3CEC06F036
:1017F000899A52EC06F0898A120006EC00F0030187
:101800000451266F3CEC06F003010651266F3CECB8
:1018100006F003010551266F3CEC06F0899A52EC64
:1018200006F0898A12000A0E056F0451066FBBECA0
:1018300009F01200090E056F0451066FBBEC09F0A8
:1018400012000C0E056F0451066FBBEC09F012007C
:101850000B0E056F0451066FBBEC09F0120006EC8D
:1018600000F0030120514009266F3CEC06F0030113
:101870002351266F3CEC06F003012251266F3CEC0D
:1018800006F003012151266F3CEC06F0899A52ECD8
:1018900006F0898A1200020E0301056FCCEC09F0F4
:1018A00008510201FE6F030109510201FF6F12008E
:1018B0001B0E0301056FCCEC09F008510201FE6F0D
:1018C00003010951046FD89004330201FE33010E65
:1018D000FE17FF6BFE5101080301046F1200040E96
:1018E0000301206FA00E216F226B236B2051386FF4
:1018F0002151396F22513A6F23513B6FE0EC08F0D0
:101900003E51246F3F51256F1200020E0301206FDC
:10191000A00E216F226B236B2051386F2151396F3C
:1019200022513A6F23513B6FE0EC08F03E51246F97
:101930003F51256F12000301206BA00E216F226B17
:10194000236B2051386F2151396F22513A6F235147
:101950003B6FE0EC08F03E51246F3F51256F1200C1
:101960002B51EA6E2A51E96E010EEF6E2951800A61
:10197000306F2751800A305D04E12851266501D07F
:1019800084D0D8A082D0285126252C6F2951306FC1
:101990002751302330512D6F30352D332C332C51BE
:1019A000326F2D51336F1FEC0AF03851246304D08D
:1019B0003951256301D027D02451306F2551316F23
:1019C000302BD8B4312B2C51326F2D51336F1FEC8B
:1019D0000AF03851306304D03951316301D013D04B
:1019E000010E245D306F24590108255D316F2C51A3
:1019F000326F2D51336F1FEC0AF03851306319D01C
:101A00003951316316D02851306F2951316F302B45
:101A1000D8B4312B3051266F3151276F2C512E6F96
:101A20002D512F6F2B51EA6E2A51E96E000EEF6E89
:101A30009DD72C51326F2D51336F1FEC0AF0255179
:101A4000395D02E12451385D10E22C51306F2D5187
:101A5000316F302BD8B4312B3051266F3151276F75
:101A60002C512E6F2D512F6F81D7010E2C5D306FB1
:101A70002C5901082D5D316F3051286F3151296F7C
:101A800028512E6F29512F6F71D72E51306F2F5142
:101A9000316F1200FE5302E1FF5313E0FE51C80DF7
:101AA000F3500301026FF450016F0201FF51C80DA2
:101AB000F350030101270251FF08006FFF0E015789
:101AC00003D00301006901690051CE6E0151CF6E50
:101AD000CD80120009EC00F0DD51FF6F9CEC0AF0A4
:101AE000DE51FF6F9CEC0AF07851FF6F9CEC0AF01E
:101AF0007951FF6F9CEC0AF07A51FF6F9CEC0AF071
:101B0000FE6BDB51FE610BD001EEE1F0E950FE51BE
:101B1000E926EF50FF6F9CEC0AF0FE2BF2D7010193
:101B2000F551FF0809E1F651FF0806E1F751FF08FA
:101B300003E1F851FF0806E00201E151FF6F9CEC60
:101B40000AF006D0200E0201E125FF6F9CEC0AF09E
:101B5000DF0533E14C50FF6F9CEC0AF00101D651D8
:101B60000201FF6F9CEC0AF04E50FF6F9CEC0AF0F4
:101B70004D50FF6F9CEC0AF05050FF6F9CEC0AF048
:101B80004F50FF6F9CEC0AF00101D8510201FF6F2A
:101B90009CEC0AF00101D7510201FF6F9CEC0AF0A6
:101BA0000101DA510201FF6F9CEC0AF00101D951E9
:101BB0000201FF6F9CEC0AF0DF6B0D0EFF6F9CECD7
:101BC0000AF00A0EFF6F9CEC0AF01200D89004375E
:101BD0000D0E04270451096FC0EC0AF00A51056F7D
:101BE000066B076B0551086F0451096F0A6B092BCF
:101BF000D8B40A2BB6EC0AF00B510711096F085143
:101C00000A6F1200126B136B0E6B0F6B106B100EC2
:101C10001015116F11671200D8900E370F370A3761
:101C20000B37123713370C51125D0D511363135DCF
:101C300005E30C51125F0D51135B0E81102BE7D79A
:101C4000106B116B146B156B126B100E1215136F5A
:101C500013671200D890143715370E370F37103727
:101C600011370751105D08511163115D05E30751EC
:101C7000105F0851115B1481122BE7D70051026FDE
:101C80000151036FD890023703375FEC0AF00A5115
:101C9000026F036B1200070E046F0251056F0351B0
:101CA000066FFDEC0BF01200060E046F0051056F7D
:101CB0000151066FFDEC0BF0120003010051FF080B
:101CC00009E10151FF0806E10251000803E1035157
:101CD00000086DE00051BA6F0151BB6F0251BC6F3B
:101CE0000351BD6F0201FE510301BE6F0201FF519E
:101CF0000301BF6FC06BC16BCCEC00F0C251046F2D
:101D0000C351056FC451066FC551076F0451006F71
:101D10000551016F0651026F0751036F0051A86F03
:101D20000151A96F0251AA6F0351AB6F640EAC6FE2
:101D3000AD6BAE6BAF6B0BEC01F0B451006FB551F6
:101D4000016FB651026FB751036F000E035D08E1DA
:101D5000000E025D05E1000E015D02E14E0E005D28
:101D600005E24E0E006F016B026B036B0051A86F12
:101D70000151A96F0251AA6F0351AB6F4E0EAC6FA8
:101D8000AD6BAE6BAF6B0BEC01F0B4510201A06F09
:101D90000301B5510201A16F0301B651046FB751A0
:101DA000056F010E0201A05F000EA15B03D00201CE
:101DB000A06BA16BA0510301046F21EC0CF0120089
:101DC00003010051FF0809E10151FF0806E102513A
:101DD000000803E1035100086DE00051BA6F0151A2
:101DE000BB6F0251BC6F0351BD6F0201FE51030175
:101DF000BE6F0201FF510301BF6FC06BC16BCCEC22
:101E000000F0C251046FC351056FC451066FC55134
:101E1000076F0451006F0551016F0651026F0751A2
:101E2000036F0051A86F0151A96F0251AA6F0351AE
:101E3000AB6F640EAC6FAD6BAE6BAF6B0BEC01F0C8
:101E4000B451006FB551016FB651026FB751036FB6
:101E5000000E035D08E1000E025D05E1000E015D6C
:101E600002E14E0E005D05E24E0E006F016B026B4B
:101E7000036B0051A86F0151A96F0251AA6F035162
:101E8000AB6F4E0EAC6FAD6BAE6BAF6B0BEC01F08E
:101E9000B45102019E6F0301B55102019F6F03010E
:101EA000B651046FB751056F010E02019E5F000E1F
:101EB0009F5B03D002019E6B9F6B9E510301046FD9
:101EC00028EC0CF0120003010051FF0809E1015158
:101ED000FF0806E10251000803E1035100086DE02C
:101EE0000051BA6F0151BB6F0251BC6F0351BD6FFE
:101EF0000201FE510301BE6F0201FF510301BF6FDA
:101F0000C06BC16BCCEC00F0C251046FC351056FC4
:101F1000C451066FC551076F0451006F0551016F21
:101F20000651026F0751036F0051A86F0151A96F4D
:101F30000251AA6F0351AB6F640EAC6FAD6BAE6B09
:101F4000AF6B0BEC01F0B451006FB551016FB6519E
:101F5000026FB751036F000E035D08E1000E025DD2
:101F600005E1000E015D02E14E0E005D05E24E0E40
:101F7000006F016B026B036B0051A86F0151A96FD9
:101F80000251AA6F0351AB6F4E0EAC6FAD6BAE6BCF
:101F9000AF6B0BEC01F0B45102019A6F0301B55124
:101FA00002019B6F0301B651046FB751056F010E1B
:101FB00002019A5F000E9B5B03D002019A6B9B6B40
:101FC0009A510301046F1AEC0CF012000301005146
:101FD000FF0809E10151FF0806E10251000803E191
:101FE000035100086DE00051BA6F0151BB6F0251FF
:101FF000BC6F0351BD6F0201FE510301BE6F0201B0
:10200000FF510301BF6FC06BC16BCCEC00F0C2513C
:10201000046FC351056FC451066FC551076F04515A
:10202000006F0551016F0651026F0751036F005198
:10203000A86F0151A96F0251AA6F0351AB6F640ED3
:10204000AC6FAD6BAE6BAF6B0BEC01F0B451006FCE
:10205000B551016FB651026FB751036F000E035DAA
:1020600008E1000E025D05E1000E015D02E14E0E89
:10207000005D05E24E0E006F016B026B036B0051B9
:10208000A86F0151A96F0251AA6F0351AB6F4E0E99
:10209000AC6FAD6BAE6BAF6B0BEC01F0B4510201EA
:1020A0009C6F0301B55102019D6F0301B651046F8E
:1020B000B751056F010E02019C5F000E9D5B03D0BE
:1020C00002019C6B9D6B9C510301046F13EC0CF09F
:1020D0001200050E046F0051056F0151066FFDECF3
:1020E0000BF01200010E0201FE6F03010451086F94
:1020F0000551096F06510A6F07510B6FE2EC0BF0A7
:102100001200600E0101EB6F000E03010C150E6F43
:102110000D51FF0B0101EC6F03010C510101ED6F3B
:1021200003010A510101EE6FEE37EE37FC0EEE1798
:10213000010E0201E36F03010851886F0951896F95
:10214000010E8B6FEB0E8A6F040E8C6F8D6B010E80
:102150008E6F8F6B92EC01F01200500E0101EB6F4D
:1021600003010A510101EC6FEC37EC37FC0EEC1760
:10217000030E0201E36F03010851886F0951896F53
:10218000010E8B6FEB0E8A6F020E8C6F8D6B030E40
:102190008E6F8F6B92EC01F0120058EC0CF0045330
:1021A000FCE14BEC0CF0FE51A66FFF51A76FF80E4F
:1021B000A617010EA717010EA75D04E1000EA66188
:1021C00001D00BD00AE3010E0301206F216F226BB7
:1021D000236B246B2FEC0CF009D00301206B010E54
:1021E000216F226B236B246B2FEC0CF0A653D5E1EF
:1021F000A753D3E158EC0CF00453FCE112000301A7
:102200000C6B0D6B0E6B0F6B9BEC0CF02451106F75
:102210002551116F126B136B1051146F1151156F03
:102220001251166F1351176FD89017331633153399
:102230001433142BD8B4152BD8B4162BD8B4172BB1
:10224000143715371637173714371537163717372A
:10225000143715371637173714371537163717371A
:10226000143715371637173714371537163717370A
:10227000C00E14171C6B1D6B1E6B1F6B010E020131
:10228000FF6F0301246FCAEC0AF03151186F32510D
:10229000196F1A6B1B6B1851FF080AE11951FF08DF
:1022A00007E11A51000804E11B510008D8B481D19C
:1022B00085EC0CF024510201046F03012551020149
:1022C000056F066B076B6FEC0CF024510201086F71
:1022D000030125510201096F0A6B0B6B9BEC0CF09B
:1022E00024510201926F030125510201936F400EA8
:1022F0000301046FA00E056F066B076BFF0E020152
:10230000926304D09351FF0AD8B404D1020EFE6345
:102310008FD0020E0301246FCAEC0AF03151206FF6
:102320003251216F226B236B2051186F2151196F8D
:1023300022511A6F23511B6F1B5102010B5D0EE1DD
:1023400003011A5102010A5D09E103011951020159
:10235000095D04E1030118510201085D15E208510D
:102360000301185D0201206F09510301195902018F
:10237000216F0A5103011A590201226F0B51030107
:102380001B590201236F25D0045103011825206F2A
:10239000020105510301216F195121230201065148
:1023A0000301226F1A512223020107510301236FF7
:1023B0001B51232320510201206F030121510201EF
:1023C000216F030122510201226F030123510201F7
:1023D000236F20510301246F020121510301256F56
:1023E0000C51266F0D51276F1051286F1151296F15
:1023F000020E2B6FFF0E2A6FB0EC0CF03051086FFD
:102400003151096F0A6B0B6B0201FF050CE1010EE4
:102410000301206F100E216F226B236B246B2FECB6
:102420000CF047EC0AF00201FF05D8B472D78DD04A
:1024300003011B5102010B5D0EE103011A51020160
:102440000A5D09E1030119510201095D04E103017B
:1024500018510201085D15E208510301185D0201DF
:10246000206F0951030119590201216F0A5103011B
:102470001A590201226F0B5103011B590201236FEC
:1024800025D0045103011825206F020105510301D5
:10249000216F19512123020106510301226F1A51A4
:1024A0002223020107510301236F1B5123232051D3
:1024B0000201206F030121510201216F030122510A
:1024C0000201226F030123510201236F20510301F6
:1024D000246F020121510301256F0C51266F0D510C
:1024E000276F1051286F1151296F020E2B6FFF0EAD
:1024F0002A6FB0EC0CF03051206F3151216F226BFC
:10250000236B2051086F2151096F22510A6F23510B
:102510000B6F1BD0700E0301106F170E116F126B33
:10252000136B1051206F1151216F1251226F1351F3
:10253000236FD8902333223321332031086F215168
:10254000096F22510A6F23510B6FD88404E1D8849C
:1025500002E1D88406E00301086B096B0A6B0B6B80
:102560000BD0060EFF0B08E0D8900301083709379F
:102570000A370B37FF0FF6D7030114512008206FDD
:10258000A10E216F1551215B070E226F1651225BA0
:10259000000E236F1751235B08532051082709535E
:1025A000215109230A5322510A230B5323510B2390
:1025B00004D0086909690A690B690851206F09513B
:1025C000216F0A51226F0B51236F120003010691F4
:1025D000F2BE0681F29E550EA76EAA0EA76EA682C7
:1025E00006B1F28E06A1F29EA69412000201685175
:1025F000606F6951616F6A51626F6B51636F080E52
:10260000EE6F090EEF6F6051F06F6151F16F625123
:10261000F26F6351F36FA5EC0AF064515C6F655182
:102620005D6F66515E6F67515F6F0A0EEE6F0B0E46
:10263000EF6F5C51F06F5D51F16F5E51F26F5F5162
:10264000F36FA5EC0AF012000051BA6F0151BB6F95
:10265000BC6BBD6B140EBE6FBF6BC06BC16BCCECA3
:1026600000F0C251A86FC351A96FC451AA6FC551E0
:10267000AB6F230EAC6F010EAD6FAE6BAF6B0BEC9F
:1026800001F0B451026FB551036F12000251BA6FDD
:102690000351BB6FBC6BBD6BC80EBE6FBF6BC06B15
:1026A000C16BCCEC00F0C251BA6FC351BB6FC451C7
:1026B000BC6FC551BD6F0201B8510301BE6F02016D
:1026C000B9510301BF6FC06BC16BCCEC00F0C251BC
:1026D000BA6FC351BB6FC451BC6FC551BD6F430EC0
:1026E000BE6FBF6BC06BC16BCCEC00F0C251A86F6A
:1026F000C351A96FC451AA6FC551AB6FD00EAC6F57
:10270000020EAD6FAE6BAF6B0BEC01F0B451046F0A
:10271000B551056FB651066FB751076F07510008E5
:1027200008E106510F0805E10551FF0802E10451D7
:10273000FF0805E2046905690F0E066F076B045177
:10274000086F0551096F06510A6F07510B6F120090
:102750000051BA6F0151BB6FBC6BBD6BC80EBE6F31
:10276000BF6BC06BC16BCCEC00F0C251BA6FC351F0
:10277000BB6FC451BC6FC551BD6F0201B85103019D
:10278000BE6F0201B9510301BF6FC06BC16BCCECCE
:1027900000F0C251A86FC351A96FC451AA6FC551AF
:1027A000AB6FD00EAC6F020EAD6FAE6BAF6B0BECC0
:1027B00001F0B451026FB551036F12000201FF51D5
:1027C000EA6EFE5103010225E96E000EEF6E02076C
:1027D0000F0E0015036F090E036503D0370E032794
:1027E00002D0300E03270201FF51EA6EFE510301B1
:1027F0000225E96E0351EF6E0253D8B41200040EA5
:10280000046F0453E4E0D890013300330407FAD78F
:102810000201FF51EA6EFE5103010225E96E000E2E
:10282000EF6E020700510A6F01510B6F0A0E0C6F19
:102830000D6B02EC0EF01251036F300E03270201F4
:10284000FF51EA6EFE5103010225E96E0351EF6E5E
:102850000253D8B4120000510E6F01510F6F0A0ECF
:10286000076F086B20EC0EF01451006F1551016FCB
:10287000D8D7046B0201FD1D0301066F0201FE1D86
:102880000301056F0551076F0451086F05E0053519
:10289000073306330807FAD70651010B02E0042B71
:1028A000E9D7010E096FA40E086F0201FC51030164
:1028B0000A6F0B6BADEC10F00101A5510301026F23
:1028C000036B0251036F026B0101A6510301021356
:1028D0000201FD1D03010A6F0201FE1D03010B6FC2
:1028E0000A5102170B5103170051086F0151096F6C
:1028F0000451FF0B07E0D8900837093701BF098F53
:10290000FF0FF7D70851021309510313010E096F86
:10291000A40E086F0201FC5103010A6F0B6B0251F8
:102920000C6F03510D6F81EC10F01200F76BEF513B
:10293000EA6EEE51F725E96EEF52D8B41200EF516E
:10294000EA6EEE51F725E96EEF50FF6F9CEC0AF04E
:10295000F72BEDD703010051F66E0151F76E0251CE
:10296000F86E400E046F03010451056F0407055310
:102970000BE00201FF51EA6EFE51E96EFE4BFF2BA8
:10298000EF50F56E0D00EFD70A00840EA66EE6EC50
:1029900012F012000051F66E0151F76E0251F86EFE
:1029A000940EA66EE6EC12F012000201F66BF76BC5
:1029B000400EF65D0CE2F7670AD001EE64F0E950D4
:1029C000F651E926FF0EEF6EF64BF72BF1D7E06BD1
:1029D0001200166B176B186B196B106B116B126B67
:1029E000136B146B200E1415156F15671200D89019
:1029F0001037113712371337083709370A370B37B3
:102A000016371737183719370F51195D08E10E516E
:102A1000185D05E10D51175D02E10C51165D09E3EA
:102A20000C51165F0D51175B0E51185B0F51195B5E
:102A30001081142BD7D706EC00F0B00E0301266FDF
:102A40003CEC06F0899A52EC06F0898A120006ECFA
:102A500000F0A00E0301266F3CEC06F0899A52ECC0
:102A600006F0898A1200020128510301006F020159
:102A700029510301016F02012A510301026F020172
:102A80002B510301036F0201BC51FE6FBD51FF6F5B
:102A900063EC0FF02C510301006F02012D51030173
:102AA000016F02012E510301026F02012F51030138
:102AB000036F0201B051FE6FB151FF6FE6EC0FF0F2
:102AC00030510301006F020131510301016F020116
:102AD00032510301026F020133510301036F0201FE
:102AE000B051FE6FB151FF6FE0EC0EF034510301B5
:102AF000006F020135510301016F020136510301DC
:102B0000026F020137510301036F0201B051FE6FE2
:102B1000B151FF6F5DEC0EF01200FE510301006F2A
:102B20000201FF510301016FA8EC13F002510201F1
:102B3000A26F030103510201A36FA2510301006FB1
:102B40000201A3510301016F3EEC0EF0025102019C
:102B5000A46F030103510201A56FA2510301006F8D
:102B60000201A3510301016F24EC13F00251020191
:102B7000AC6F030103510201AD6FAC51AE6FAD51AB
:102B8000AF6FAC510301006F0201AD510301016F42
:102B900069EC10F0AE510301006F0201AF51030167
:102BA000016F54EC0EF01200FE510301026F02019E
:102BB000FF510301036F46EC13F008510201246F2B
:102BC000030109510201256F03010A510201266F19
:102BD00003010B510201276F25510301006F020110
:102BE00026510301016F020127310301026F0133F6
:102BF00000330233013300330051026F0151036F80
:102C00004BEC0EF01200020E0201F76F410EF86F4E
:102C1000F1EC08F0020E0301096FC0EC0AF00A5152
:102C20000201D46F030EF76F640EF86FF1EC08F039
:102C3000030E0301096FC0EC0AF00A510201B06FE4
:102C4000B16B040EF76F640EF86FF1EC08F0040E30
:102C50000301096FC0EC0AF00A510201BC6FBD6BA1
:102C6000050EF76F010EF86FF1EC08F0050E030189
:102C7000096FC0EC0AF00A510201BA6FBB6BF46B2A
:102C80003C0EF56FF66BAAEC09F00301046BE6EC61
:102C90000DF009510201B26F03010A510201B36F35
:102CA000070EF46F640EF56FF66BAAEC09F0070ED1
:102CB0000301046FE6EC0DF009510201B46F03014A
:102CC0000A510201B56FF6EC12F012006AEC0DF039
:102CD000D751FE6FFF6B4AEC0DF0120006EC00F0CE
:102CE000F65150090301266F3CEC06F0F95103013F
:102CF000266F3CEC06F0F8510301266F3CEC06F021
:102D0000F7510301266F3CEC06F0899A52EC06F06D
:102D1000898A120006EC00F003010C512009266F8D
:102D20003CEC06F00301266B3CEC06F00301266B3D
:102D30003CEC06F00301266B3CEC06F0899A52EC61
:102D400006F0898A010E0301266F48EC06F028512F
:102D50000D6F0E6B0F6B106BD88404E1D88402E109
:102D6000D88405E00D6B0E6B0F6B106B0AD0080E4C
:102D7000FF0B07E0D8900D370E370F371037FF0FD6
:102D8000F7D7020E266F48EC06F02851116F126B30
:102D9000136B146B11510D1312510E1313510F13AA
:102DA00014511013D88404E1D88402E1D88405E0DA
:102DB0000D6B0E6B0F6B106B0AD0080EFF0B07E04C
:102DC000D8900D370E370F371037FF0FF7D7030E98
:102DD000266F48EC06F02851116F126B136B146BC1
:102DE00011510D1312510E1313510F1314511013CF
:102DF0000D51116F0E51126F0F51136F1051146F4F
:102E0000120058EC0CF00453FCE14BEC0CF0FE51BA
:102E1000A66FFF51A76FF80EA617010EA717F65160
:102E20000301206F010E216F226B236B246B2FECAB
:102E30000CF0A653E6E1A753E4E158EC0CF0045380
:102E4000FCE11200010E0201FE6FFFEC10F02051B8
:102E50000101F56F030121510101F66F03012251B8
:102E60000101F76F030123510101F86FF8510201CD
:102E70005F5D0EE10101F75102015E5D09E10101B3
:102E8000F65102015D5D04E10101F55102015C5D55
:102E90000AE20301206BD00E216F070E226F236B15
:102EA000246B2FEC0CF063510101F85D0EE102017F
:102EB00062510101F75D09E1020161510101F65D15
:102EC00004E1020160510101F55D0BE2010E030115
:102ED000206FD00E216F070E226F236B246B2FEC17
:102EE0000CF047EC0AF0CDEC10F047EC0AF0020EC3
:102EF0000201FE6FFFEC10F020510101F56F03019C
:102F000021510101F66F030122510101F76F030105
:102F100023510101F86FF551FF080AE1F651FF084E
:102F200007E1F751FF0804E1F851FF08D8B4120097
:102F3000F55102013C6F0101F65102013D6F0101A3
:102F4000F75102013E6F0101F85102013F6F3C5100
:102F5000386F3D51396F3F0E3E153A6F000E3F15E9
:102F60003B6F0101F5510301046F0101F6510301AB
:102F7000056F0101F7510301066F0101F8510301CB
:102F8000076F72EC10F01200AA0E0201EE6FBA0E7B
:102F9000EF6F050EF06FF16BEE51F26FEF51F36FC3
:102FA000F051F46FF151F56FD890F533F433F333FA
:102FB000F233200E646FF2516427A10E656FF35156
:102FC0006523070E666FF4516623000E676FF55197
:102FD0006723B10E645F010E655B000E665B000E39
:102FE000675BEE51F26FEF51F36FF051F46FF151F7
:102FF000F56FD890F533F433F333F233F251200800
:10300000686FA10E696FF351695B070E6A6FF45127
:103010006A5B000E6B6FF5516B5BB10E6827010E9A
:103020006923000E6A23000E6B23120006EC00F0E9
:10303000B80E0301266F3CEC06F0899A52EC06F0BC
:10304000898A120006EC00F0A80E0301266F3CEC02
:1030500006F0899A52EC06F0898A1200F86BF35157
:10306000EA6EF251E96EF851F82BE926EF50F96F4C
:10307000F151EA6EF051E96EF04BF12BF951EF6E20
:10308000EEE11200FF6BFD6BF551EA6EF451E96E53
:10309000FD51FD2BE926EF50FE6FFE6701D02BD1CD
:1030A000250EFE630ED0F551EA6EF451E96EFD5126
:1030B000FD2BE926EF50FE6F0301006F250E006324
:1030C0000BD00201F351EA6EF251E96EFF51FF2B72
:1030D000E926FE51EF6ED8D7026B0391200E016FE7
:1030E0000201FE53D8B407D1300EFE6301D00CD0DC
:1030F000200EFE6301D00CD02B0EFE6301D00CD04D
:103100002D0EFE631AD00CD0300E0301016F0AD0D1
:10311000200E0301026F06D02B0E0301026F02D0B6
:10312000030103810201F551EA6EF451E96EFD518C
:10313000FD2BE926EF50FE6FD3D70301046B300E51
:103140000201FE6101D01BD0FE51390818E30A0EBE
:1031500003010403F350046F0201FE51030104272D
:10316000300E045F0201F551EA6EF451E96EFD5133
:10317000FD2BE926EF50FE6FFE67E1D7BCD06F0E46
:10318000FE6301D010D0640EFE6301D010D0750E26
:10319000FE6301D017D0580EFE6301D017D0620E27
:1031A000FE63A9D017D0080E0301076F16D0FCAF3D
:1031B00009D02D0E0301026F0201FB1FFC1FFB2B28
:1031C000D8B4FC2B0A0E0301076F07D0100E0301C1
:1031D000076F03D0020E0301076F056B0201FB515D
:1031E0000301096F0201FC5103010A6F052B09510C
:1031F0000E6F0A510F6F0751076F086B20EC0EF02E
:103200001451096F15510A6F0953F0E10A53EEE1A9
:103210000253D8A4052B066B000E046509D0055196
:10322000046102D00451056F0551045D066F03D09F
:103230000551046F066B0653D8B403910451020183
:10324000FF270301039303B103830301055302E145
:1032500006534DE00201FF07030103A308D001510B
:103260000201FE6F0301062F39D0039337D0052FDB
:1032700006D0025304E002510201FE6F2BD002017E
:10328000FB5103010A6F0201FC5103010B6F07514F
:103290000C6F0D6B02EC0EF01251096F0951020117
:1032A000FE6F090EFE6503D0370EFE2702D0300EEA
:1032B000FE27FB5103010E6F0201FC5103010F6F4A
:1032C000086B20EC0EF014510201FB6F0301155145
:1032D0000201FC6F03010553D8B403830201F351CB
:1032E000EA6EF251FF25E96EFE51EF6EAED7045142
:1032F0000201FF27C9D6F351EA6EF251FF25E96EAC
:10330000000EEF6E1200FF6BFD6BF351EA6EF2518F
:10331000E96EFD51FD2BE926EF50FE6FFE6701D0EF
:1033200064D1250EFE630ED0F351EA6EF251E96EC0
:10333000FD51FD2BE926EF50FE6F0301006F250EB6
:1033400000630BD00201F151EA6EF051E96EFF51BA
:10335000FF2BE926FE51EF6ED8D7026B0391200EAA
:10336000016F0201FE53D8B440D1300EFE6301D08C
:103370000CD0200EFE6301D00CD02B0EFE6301D0CA
:103380000CD02D0EFE631AD00CD0300E0301016F4D
:103390000AD0200E0301026F06D02B0E0301026F2C
:1033A00002D0030103810201F351EA6EF251E96E8A
:1033B000FD51FD2BE926EF50FE6FD3D70301046BBF
:1033C000300E0201FE6101D01BD0FE51390818E316
:1033D0000A0E03010403F350046F0201FE510301BE
:1033E0000427300E045F0201F351EA6EF251E96ED8
:1033F000FD51FD2BE926EF50FE6FFE67E1D7F5D0BA
:103400006F0EFE6301D014D0640EFE6301D014D0A1
:103410006C0EFE6301D010D0750EFE6301D01CD07F
:10342000580EFE6301D01CD0620EFE63DED01CD0AD
:10343000080E0301AC6F1BD0FCAF0ED02D0E0301A4
:10344000026F0201F91FFA1FFB1FFC1FF93F04D096
:10345000FA3F02D0FB4BFC2B0A0E0301AC6F07D0E6
:10346000100E0301AC6F03D0020E0301AC6F056BAD
:103470000201F9510301076F0201FA510301086FBC
:103480000201FB510301096F0201FC5103010A6FA4
:10349000052B0751A86F0851A96F0951AA6F0A514E
:1034A000AB6FAC51AC6FAD6BAE6BAF6B0BEC01F0B7
:1034B000B451076FB551086FB651096FB7510A6F14
:1034C0000751081109110A11FF0BE2E10253D8A4B8
:1034D000052B066B000E046509D00551046102D06E
:1034E0000451056F0551045D066F03D00551046F4B
:1034F000066B0653D8B4039104510201FF27030160
:10350000039303B103830301055302E1065369E00A
:103510000201FF07030103A308D001510201FE6F5E
:103520000301062F55D0039353D0052F06D0025325
:1035300004E002510201FE6F47D00201F95103017C
:10354000086F0201FA510301096F0201FB510301E7
:103550000A6F0201FC5103010B6FAC510C6F0D6B34
:103560000E6B0F6BE9EC14F01651076F0751020157
:10357000FE6F090EFE6503D0370EFE2702D0300E17
:10358000FE27F9510301A86F0201FA510301A96F47
:103590000201FB510301AA6F0201FC510301AB6F51
:1035A000AD6BAE6BAF6B0BEC01F0B4510201F96F78
:1035B0000301B5510201FA6F0301B6510201FB6F1D
:1035C0000301B7510201FC6F03010553D8B4038313
:1035D0000201F151EA6EF051FF25E96EFE51EF6EE6
:1035E00092D704510201FF2790D6F151EA6EF051B3
:1035F000FF25E96E000EEF6E1200010EFC6FFD6BF1
:10360000100EFE6FFA510301006F016B39EC14F0DC
:103610001200010EFC6FFD6B800EFE6FFA5103016C
:10362000006F016B39EC14F01200010EFC6FFD6BA2
:10363000040EFE6FFA510301006F016B39EC14F0B8
:103640001200020EFC6FFD6B040EFE6FFA510301B7
:10365000006F016B39EC14F01200020EFC6F800E4B
:10366000FD6F010EFE6FFA510301006F016B39EC23
:1036700014F01200020EFC6F600EFD6FFE6BFA512B
:103680000301006F016B39EC14F01200020EFC6FA5
:10369000030EFD6FFE6BFA510301006F016B39ECF5
:1036A00014F01200020EFC6FFD6B180EFE6FFA5143
:1036B0000301006F016B39EC14F01200FC6B0F0E6C
:1036C000FD6FFE6BFA510301006F016B39EC14F0D2
:1036D0001200FC6B700EFD6FFE6BFA510301006F60
:1036E0000201FB510301016F39EC14F01200010ECD
:1036F000FC6FFD6B080EFE6FFA510301006F016B4A
:1037000039EC14F01200020EFC6F1C0EFD6FFE6B04
:10371000FA510301006F016B39EC14F01200010E35
:10372000FC6FFD6B600EFE6FFA510301006F016BC1
:1037300039EC14F01200010EFC6F3F0EFD6FFE6BB2
:10374000FA510301006F016B39EC14F01200010E05
:10375000FC6FC00EFD6F030EFE6FFA510301006F88
:10376000016B39EC14F01200FC6BFD6B010EFE6F67
:10377000FA510301006F016B39EC14F0120009ECEF
:1037800000F0000EEF6F570EEE6F96EC14F0200E67
:10379000FF6F9CEC0AF0230ED3630DD0500EF06F38
:1037A000410EF16F4E0EF26FF36B020EEF6FF00EE3
:1037B000EE6F96EC14F0240ED3630ED0490EF16F29
:1037C0004C0EF26F540EF06FF36FF46B020EEF6F4E
:1037D000F00EEE6F96EC14F0200EF06F560EF16FB7
:1037E000650EF26F720EF36F280EF46FF56B020E1A
:1037F000EF6FF00EEE6F96EC14F0300EF06F360EA9
:10380000F16FF26FF36B020EEF6FF00EEE6F96EC4E
:1038100014F0290EF06F200EF16F410EF26F640E5E
:10382000F36F720EF46F280EF56FF66B020EEF6FEA
:10383000F00EEE6F96EC14F0D451FF6F9CEC0AF092
:10384000290EFF6F9CEC0AF00D0EFF6F9CEC0AF046
:103850000A0EFF6F9CEC0AF0030E0301876F1AEC4F
:1038600000F0240E0201D36305D0640E0301876FBC
:103870001AEC00F0E3EC01F01200F29E0201F26B90
:10388000E00EF36FF46BF56BF2510301006F020170
:10389000F3510301016F0201F4510301026F0201B0
:1038A000F5510301036FCAEC14F0D5EC14F06C5120
:1038B0000101646F02016D510101656F02016E51DA
:1038C0000101666F02016F510101676F0201F25140
:1038D0000301006F0201F3510301016F0201F45172
:1038E0000301026F0201F5510301036F010E020192
:1038F000FF6F640EFE6FAAEC14F0F28E120080BC13
:1039000002D0899201D0898280AE04D0230E0201B8
:10391000D36F1200240E0201D36F1200F56BF66B09
:10392000F1AF0BD00A0EF46308D0F01FF11FF02B9B
:10393000D8B4F12B2D0EF56FF62BF051F76FF15136
:10394000F86FF62BF75103010E6F0201F8510301D6
:103950000F6F0201F4510301076F086B20EC0EF0AA
:1039600014510201F76F030115510201F86FF7536B
:10397000E8E1F853E6E1F051F76FF151F86FF96BB8
:10398000F6293FE0F351EA6EF251F625E96EF9515E
:10399000EF6EF62F05D0F55303E0F551F96FF0D730
:1039A000F75103010A6F0201F85103010B6F020185
:1039B000F45103010C6F0D6B02EC0EF01251020179
:1039C000FA6FFA51F96F090EF96503D0370EF9272E
:1039D00002D0300EF927F75103010E6F0201F851A2
:1039E00003010F6F0201F4510301076F086B20EC14
:1039F0000EF014510201F76F030115510201F86F27
:103A0000BFD7F251FA6FF351FB6F1200E00EB26EA6
:103A1000B10EB36E350EB16EB49EA292A192A08289
:103A20001200CE6ACF6A340ECD6ECC9E9F909E90CF
:103A30009D801200D76AD66A170ED56ED59EF19476
:103A4000F294F29A12000201CEB105D0186B196BF4
:103A50001A6B1B6BCE81CEB303D0966B976BCE8364
:103A6000CA53D8B47DD0210EFE6FFF6BD4EC15F095
:103A7000320EFE6FFF6B8DEC15F0020E0301046F2A
:103A8000E6EC0DF00951006F0A51016F026B036BF8
:103A9000640E0201FE6FFF6B63EC0FF0030E030177
:103AA000046FE6EC0DF00951006F0A51016F026BD3
:103AB000036B190E0201FE6FFF6BE6EC0FF0040EB4
:103AC0000301046FE6EC0DF00951006F0A51016F1C
:103AD000026B036B640E0201FE6FFF6BE0EC0EF0F5
:103AE000050E0301046FE6EC0DF00951006F0A5159
:103AF000016F026B036B640E0201FE6FFF6B5DECE6
:103B00000EF0966B976B010E0301246FCAEC0AF05E
:103B100031510201EE6F030132510201EF6FF06B80
:103B2000F16B010EF66F2451F76F2551F86F265196
:103B3000F96F2751FA6F6EEC16F0FA0E0301876FDA
:103B40001AEC00F0FA0E876F1AEC00F00201EE5149
:103B5000186FEF51196FF0511A6FF1511B6FB8D0F8
:103B6000640E0301876F1AEC00F0010E246FCAEC9B
:103B70000AF031510201F66F030132510201F76F71
:103B8000F86BF96BF651EE6FF751EF6FF851F06F7C
:103B9000F951F16F1B51F15D08E11A51F05D05E13A
:103BA0001951EF5D02E11851EE5D39E31851EE5DF8
:103BB000F26F1951EF59F36F1A51F059F46F1B510D
:103BC000F159F56FF551000808E1F451000805E1DD
:103BD000F351460802E1F251500861E2A00EF66F7F
:103BE0001851F6278C0EF76F1951F723000EF86F56
:103BF0001A51F823000EF96F1B51F923F651F26F99
:103C0000F751F36FF851F46FF951F56FEE51F25F20
:103C1000EF51F35BF051F45BF151F55B40D0EE51A5
:103C2000185DF66FEF511959F76FF0511A59F86F87
:103C3000F1511B59F96FF651F26FF751F36FF851CB
:103C4000F46FF951F56FF551000808E1F4510008DF
:103C500005E1F351460802E1F251500820E2A00EBE
:103C6000F66FEE51F6278C0EF76FEF51F723000E2B
:103C7000F86FF051F823000EF96FF151F923F65166
:103C8000F26FF751F36FF851F46FF951F56F185166
:103C9000F25F1951F35B1A51F45B1B51F55B000E97
:103CA000F55D08E1000EF45D05E1000EF35D02E153
:103CB000190EF25D03E3966B976B02D0964B972B30
:103CC000EE51186FEF51196FF0511A6FF1511B6FD0
:103CD000020E9665976701D0120016EC18F058ECAA
:103CE0000CF00453FCE1010E0201F66FB7EC00F09A
:103CF000010EF66F01EC17F047EC0AF0020E246F8C
:103D0000CAEC0AF0315102010C6F03013251020179
:103D10000D6F0E6B0F6B010EC86F12000201006B6E
:103D2000A00E016F026B036BCC6B00EE0CF0E95040
:103D3000CC51E9269451EF6ECC2B9551EE6F0C0EC1
:103D4000E96ECC51E926EE51EF6ECC2B0C0EE96EEC
:103D5000CC51E9260451EF6ECC2B0551EE6F0C0EC1
:103D6000E96ECC51E926EE51EF6ECC2B0C0EE96ECC
:103D7000CC51E9260851EF6ECC2B0951EE6F0C0E99
:103D8000E96ECC51E926EE51EF6ECC2B0C0EE96EAC
:103D9000CC51E9260C51EF6ECC2B0D51EE6F0C0E71
:103DA000E96ECC51E926EE51EF6ECC2B0C0EE96E8C
:103DB000CC51E9261051EF6ECC2B1151EE6F0C0E49
:103DC000E96ECC51E926EE51EF6ECC2B400ECC6162
:103DD00010D000EE0CF0E950CC51E926FF0EEF6E4A
:103DE000CC2B0C0EE96ECC51E926FF0EEF6ECC2BDE
:103DF000EDD7006BA00E016F026B036B0051030146
:103E0000006F020101510301016F02010251030120
:103E1000026F020103510301036FCAEC14F00201A7
:103E200000510301006F020101510301016F020102
:103E300002510301026F020103510301036F000EDF
:103E40000201FF6F0C0EFE6FAAEC14F0A198C4ECF7
:103E500017F0F6EC12F003EC16F033EC15F022EC50
:103E600017F0200E0101F96FA10EFA6F070EFB6F1C
:103E7000FC6B040E0201C26F1200EE510301046FCD
:103E8000E6EC0DF009510201F06F03010A51020145
:103E9000F16FF26BF36BF46BF56BF051F66FF15160
:103EA000F76FEF510301046FE6EC0DF00201F451DE
:103EB000030109110201F86FF55103010A11020112
:103EC000F96FF651FA6FF751FB6FF851F06FF95136
:103ED000F16FFA51F26FFB51F36FF051F46FF15142
:103EE000F56FF251F66FF351F76F12000201EE6BAE
:103EF000EF6BF06BF16BF26BF36BF46BF56BCA531A
:103F0000D8B4D9D0320EFE6FFF6BD4EC15F0320E60
:103F1000FE6FFF6B8DEC15F0020E0301046FE6ECF3
:103F20000DF00951006F0A51016F026B036B640EB3
:103F30000201FE6FFF6B63EC0FF0030E0301046FD1
:103F4000E6EC0DF00951006F0A51016F026B036B33
:103F5000640E0201FE6FFF6BE6EC0FF0040E03012E
:103F6000046FE6EC0DF00951006F0A51016F026B0E
:103F7000036B640E0201FE6FFF6BE0EC0EF0050EAA
:103F80000301046FE6EC0DF00951006F0A51016F57
:103F9000026B036B640E0201FE6FFF6B5DEC0EF0B3
:103FA000CD6BA00E046F8C0E056F066B076B946BC8
:103FB000956B020E0301246FCAEC0AF03151006FB9
:103FC0003251016F026B036B00510201EE6F03016E
:103FD00001510201EF6F030102510201F06F030171
:103FE00003510201F16FFA0EEE5D086F000EEF59FA
:103FF000096F000EF0590A6F000EF1590B6F08514E
:10400000EE5DFE6F0951EF59FF6F0A51F059030140
:10401000006F02010B51F1590301016F0201FE51C2
:10402000F26FFF51F36F030100510201F46F0301BE
:1040300001510201F56FF251146FF351156FF451F4
:10404000166FF551176FC90511E1010EFF6FE10EF3
:10405000FE6FF2510301006F0201F3510301016F82
:10406000040E026FDEEC13F066EC16F0010E030195
:10407000206F400E216F226B236B246B2FEC0CF012
:1040800047EC0AF0400E0201006FA00E016F026BB8
:10409000036BCC6B00EE0CF0E950CC51E926F251E9
:1040A000EF6ECC2BF351FE6F0C0EE96ECC51E9266E
:1040B000FE51EF6ECC2B944B952B020E0301246F17
:1040C000CAEC0AF03151006F3251016F026B036B81
:1040D00000510201EE6F030101510201EF6F030174
:1040E00002510201F06F030103510201F16FCD058E
:1040F00024E10451EE25FE6F0551FF6FEF51FF23C0
:1041000006510301006F0201F05103010023020177
:1041100007510301016F0201F15103010123020163
:10412000FE51F26FFF51F36F030100510201F46F72
:10413000030101510201F56F76D01451F66F15514C
:10414000F76F1651F86F1751F96FD890F933F833AC
:10415000F733F633F951F15D08E1F851F05D05E10F
:10416000F751EF5D02E1F651EE5D41E2060EFE6FA2
:104170001451FE27000EFF6F1551FF23000E03019F
:10418000006F0201165103010023000E016F0201AE
:104190001751030101230201FE51F26FFF51F36F2A
:1041A000030100510201F46F030101510201F56F97
:1041B000EE51F25DFE6FEF51F359FF6FF051F4597C
:1041C0000301006F0201F151F5590301016F020172
:1041D000FE51046FFF51056F030100510201066F8C
:1041E000030101510201076F010ECD6F1CD0085170
:1041F000EE5DFE6F0951EF59FF6F0A51F05903014F
:10420000006F02010B51F1590301016F0201FE51D0
:10421000F26FFF51F36F030100510201F46F0301CC
:1042200001510201F56FF251146FF351156FF45102
:10423000166FF551176FC90511E1010EFF6FE10E01
:10424000FE6FF2510301006F0201F3510301016F90
:10425000040E026FDEEC13F066EC16F000EE0CF0CC
:10426000E9500201CC51E926F251EF6ECC2BF3510B
:10427000FE6F0C0EE96ECC51E926FE51EF6ECC2B91
:1042800004510C25FA6F0551FB6F0D51FB230651AC
:10429000FC6F0E51FC230751FD6F0F51FD23FD51A3
:1042A000F55D08E1FC51F45D05E1FB51F35D02E1D0
:1042B000FA51F25D0DE2010E0301206F400E216FF5
:1042C000226B236B246B2FEC0CF047EC0AF060D0D0
:1042D000400ECC6110D000EE0CF0E950CC51E92634
:1042E000FF0EEF6ECC2B0C0EE96ECC51E926FF0EC3
:1042F000EF6ECC2BEDD7320E0301876F1AEC00F076
:104300000201C90515E1F269F369F46BF56B010E61
:10431000FF6FE10EFE6FF2510301006F0201F351D6
:104320000301016F040E026FDEEC13F066EC16F071
:10433000640E0301876F1AEC00F0010E0201FF6F9B
:10434000E10EFE6F94510301006F020195510301CC
:10435000016F040E026F08EC14F066EC16F0640EA8
:10436000876F1AEC00F0010E0201FF6FE10EFE6F85
:1043700004510301006F020105510301016F040E96
:10438000026F08EC14F066EC16F0030E0201C86F21
:10439000400E0201CC6101D033D000510301006F07
:1043A000020101510301016F020102510301026F79
:1043B000020103510301036FCAEC14F00201005122
:1043C0000301006F020101510301016F020102515B
:1043D0000301026F020103510301036F000E02018A
:1043E000FF6F0C0EFE6FAAEC14F0A198400E0201B4
:1043F0000027000E0123000E0223000E0323CC6BC6
:10440000030EC863120000510301006F0201015145
:104410000301016F020102510301026F0201035106
:104420000301036FCAEC14F012000201CEB505D0EF
:104430001C6B1D6B1E6B1F6BCE85CEB703D0986BAC
:10444000996BCE87CA537CE0210EFE6FFF6BD4ECD4
:1044500015F0320EFE6FFF6B8DEC15F0020E0301AE
:10446000046FE6EC0DF00951006F0A51016F026B09
:10447000036B640E0201FE6FFF6B63EC0FF0030E23
:104480000301046FE6EC0DF00951006F0A51016F52
:10449000026B036B190E0201FE6FFF6BE6EC0FF06F
:1044A000040E0301046FE6EC0DF00951006F0A5190
:1044B000016F026B036B640E0201FE6FFF6BE0EC99
:1044C0000EF0050E0301046FE6EC0DF00951006FCC
:1044D0000A51016F026B036B640E0201FE6FFF6BEA
:1044E0005DEC0EF0986B996B010E0301246FCAEC22
:1044F0000AF031510201EE6F030132510201EF6FF8
:10450000F06BF16BF66B2451F76F2551F86F265164
:10451000F96F2751FA6F6EEC16F0FA0E0301876FF0
:104520001AEC00F0FA0E876F1AEC00F00201EE515F
:104530001C6FEF511D6FF0511E6FF1511F6FB8D0FE
:10454000640E0301876F1AEC00F0010E246FCAECB1
:104550000AF031510201F66F030132510201F76F87
:10456000F86BF96BF651EE6FF751EF6FF851F06F92
:10457000F951F16F1F51F15D08E11E51F05D05E148
:104580001D51EF5D02E11C51EE5D39E31C51EE5D02
:10459000F26F1D51EF59F36F1E51F059F46F1F5117
:1045A000F159F56FF551000808E1F451000805E1F3
:1045B000F351460802E1F251500861E2A00EF66F95
:1045C0001C51F6278C0EF76F1D51F723000EF86F64
:1045D0001E51F823000EF96F1F51F923F651F26FA7
:1045E000F751F36FF851F46FF951F56FEE51F25F37
:1045F000EF51F35BF051F45BF151F55B40D0EE51BC
:104600001C5DF66FEF511D59F76FF0511E59F86F91
:10461000F1511F59F96FF651F26FF751F36FF851DD
:10462000F46FF951F56FF551000808E1F4510008F5
:1046300005E1F351460802E1F251500820E2A00ED4
:10464000F66FEE51F6278C0EF76FEF51F723000E41
:10465000F86FF051F823000EF96FF151F923F6517C
:10466000F26FF751F36FF851F46FF951F56F1C5178
:10467000F25F1D51F35B1E51F45B1F51F55B000EA1
:10468000F55D08E1000EF45D05E1000EF35D02E169
:10469000190EF25D03E3986B996B02D0984B992B3E
:1046A000EE511C6FEF511D6FF0511E6FF1511F6FD6
:1046B000020E9865996701D0120016EC18F058ECBC
:1046C0000CF00453FCE1010E0201F66FB7EC00F0B0
:1046D000F66B01EC17F047EC0AF0020E246FCAECFF
:1046E0000AF031510201106F030132510201116FC2
:1046F000126B136B020EC86F1200F36BF46BF26B4C
:10470000F151EA6EF051F225E96EEF50F56FF55177
:104710000301C66FA9EC00F0C7510201F56F410E0D
:10472000F56101D003D0370EF55F02D0300EF55F92
:10473000100EF56501D01200040EFF0B05E0D890B5
:10474000F337F437FF0FF9D7F551F327D8B0F42B2F
:10475000F22BD6D7F2530AE1010EBA6305D0BB5152
:1047600003E11BEC15F002D027EC15F0F205D8A4FC
:104770001200010EBA6305D0BB5103E116EC18F02C
:10478000120022EC18F012000E0E0301056F020158
:10479000EE510301066FBBEC09F012000F0E03018E
:1047A000056F0201EE510301066FBBEC09F0120028
:1047B000100E0301056F0201EE510301066FBBEC01
:1047C00009F01200160E0301056F0201EE510301FC
:1047D000066FBBEC09F01200130E0301056F020116
:1047E000EE510301066FBBEC09F01200080E030145
:1047F000046F0201EE510301056F0201EF51030145
:10480000066FFDEC0BF01200180E0301046F02019D
:10481000EE510301056F0201EF510301066FFDEC3C
:104820000BF0190E0301056F0201F0510301066F31
:10483000BBEC09F01200150E0301046F0201EE51EA
:104840000301056F0201EF510301066FFDEC0BF050
:1048500012001A0E0301046F0201EE510301056FED
:104860000201EF510301066FFDEC0BF01200170E71
:104870000301056F0201EE510301066FBBEC09F065
:10488000120006EC00F0C00E0301266F3CEC06F0AF
:10489000899A52EC06F0898A120058EC0CF0045305
:1048A000FCE106EC00F0600E0301266F3CEC06F024
:1048B000F0510301266F3CEC06F0EF510301266F27
:1048C0003CEC06F0EE510301266F3CEC06F0899AB1
:1048D00052EC06F0898A1200010E03010C6F8AEC7B
:1048E00016F01151046F1251056F1351066F1451D8
:1048F000076F0201FE6B03010451086F0551096F38
:1049000006510201FF6F0301083709370201FF3723
:104910000301083709370201FF37FC0E03010817AE
:104920000201FF5103010A6F0B6B0201FFAF02D0BE
:1049300003010B070201FF3503010A330933083372
:104940000201FF3503010A330933083308510C6FA4
:1049500009510D6F0A510E6F0B510F6F12000201BA
:104960006B510101F85D0EE102016A510101F75D31
:1049700009E1020169510101F65D04E1020168519A
:104980000101F55D14E3F8510201675D0EE10101DB
:10499000F7510201665D09E10101F6510201655D11
:1049A00004E10101F5510201645DD8B01200010E6D
:1049B0005F6E12001B0E0301056FCCEC09F008516D
:1049C0000201EF6F030109310201EE6FEF33010EB7
:1049D000EF171200010E0301096FC0EC0AF00A5133
:1049E0000201D36301D002D003010A6309D0010E92
:1049F0000201F76FD351F86FF1EC08F003EC16F0F9
:104A0000020E0301096FC0EC0AF00A510201D46FD3
:104A1000030E0301096FC0EC0AF00A510201B06FE6
:104A2000B16B040E0301096FC0EC0AF00A510201D8
:104A3000BC6FBD6B050E0301096FC0EC0AF00A5193
:104A40000201BA6FBB6B060E0301096FC0EC0AF0DE
:104A50000A51576E070E096FC0EC0AF00A51586EE2
:104A6000080E096FC0EC0AF00A51596E090E096F61
:104A7000C0EC0AF00A515A6E0A0E096FC0EC0AF037
:104A80000A515B6E0B0E096FC0EC0AF00A515C6EA6
:104A90000C0E096FC0EC0AF00A515D6E5E6A080EDA
:104AA0000201EE6F090EEF6F3DEC1FF0F451606FE5
:104AB000F551616FF651626FF751636F0A0EEE6F39
:104AC0000B0EEF6F3DEC1FF0F4515C6FF5515D6F15
:104AD000F6515E6FF7515F6F0C0E0301046FE6EC49
:104AE0000DF009510201AA6F03010A510201AB6FD7
:104AF0000D0E0301046FE6EC0DF009510201BE6FCB
:104B000003010A510201BF6F070E0301046FE6ECB7
:104B10000DF009510201B46F03010A510201B56F92
:104B2000020E0301046FE6EC0DF009510201286F3B
:104B300003010A510201296F2A6B2B6B030E03013B
:104B4000046FE6EC0DF0095102012C6F03010A51CC
:104B500002012D6F2E6B2F6B040E0301046FE6EC28
:104B60000DF009510201306F03010A510201316F4A
:104B7000326B336B050E0301046FE6EC0DF0095147
:104B80000201346F03010A510201356F366B376B36
:104B90000301046BE6EC0DF009510201B66F03014D
:104BA0000A510201B76F010E0301046FE6EC0DF02C
:104BB00009510201B86F03010A510201B96F060ED3
:104BC0000301046FE6EC0DF009510101FD6F0301D3
:104BD0000A510101FE6F12001AEC1DF011EC1DF0DC
:104BE00006EC1DF01200140E0201D76F020E030135
:104BF000386FE00E396F3A6B3B6BE0EC08F0FF0E5C
:104C00003E630CD0FF0E3F6309D0800E02016C6F33
:104C1000250E6D6F6E6B6F6B3DEC1CF002016C6BC3
:104C20006D6B6E6B6F6B020E0301386FE00E396FA8
:104C30003A6B3B6BE0EC08F03E5102016C6F0301F4
:104C40003F5102016D6F6E6B6F6BD88404E1D884A5
:104C500002E1D88405E06C6B6D6B6E6B6F6B0AD0F4
:104C6000100EFF0B07E0D8906C376D376E376F373B
:104C7000FF0FF7D70301386BE00E396F3A6B3B6BD0
:104C8000E0EC08F03E510201F26F03013F510201D6
:104C9000F36FF46BF56BF2516C13F3516D13F45128
:104CA0006E13F5516F13EE6B900EEF6FD00EF06F29
:104CB000030EF16FEE510301A86F0201EF510301E2
:104CC000A96F0201F0510301AA6F0201F151030122
:104CD000AB6F02016C510301AC6F02016D51030116
:104CE000AD6F02016E510301AE6F02016F510301FE
:104CF000AF6F0BEC01F0B4510201F26F0301B5513B
:104D00000201F36F0301B6510201F46F0301B751C1
:104D10000201F56FF251EE6FF351EF6FF451F06F46
:104D2000F551F16FEE53EF53F053F133F033EF33AE
:104D3000EE33F133F033EF33EE33F133F033EF335F
:104D4000EE33F133F033EF33EE330F0EF117010E84
:104D5000EE5F000EEF5B000EF05B000EF15BEF51BB
:104D6000B06EEE51AF6EB886AC94AC9CAC8AAC9889
:104D7000AB8EAB88949C9F8A9D8A9F889D98EF51AB
:104D8000766EEE51756E70867294729C728A72980D
:104D90007188939CA58AA588718EA38AA398D66BE7
:104DA00012000F01386B396B3A6B8A9089828994B3
:104DB00089968A888A8A898A828C8B8C8B94928045
:104DC0009292929492969288929A928C928E616A22
:104DD000F19E93909392938493969398939A938C45
:104DE000938E619C618E948094829494949694881E
:104DF000949A948C948E010E0301876F1AEC00F044
:104E00008A801200050E0301876F1AEC00F041EC56
:104E100024F0050E0301876F1AEC00F00A0E020160
:104E2000EE6FEF6BF6EC23F0470EEE6FC4EC23F061
:104E3000040EEE6FCEEC23F0290EEE6FD8EC23F0CB
:104E40000F0EEE6FECEC23F0EE69EF6B1BEC24F031
:104E50000C0EEE6FE2EC23F0EF0EEE6F37EC24F069
:104E6000C30EEE6FEF6B400EF06F04EC24F0900E6B
:104E7000EE6FB00EEF6F29EC24F0010E0301876F87
:104E80001AEC00F0F6EC09F026510201A86F0301BC
:104E900027510201A96FF6EC09F026510201A86F13
:104EA000030127510201A96F82B203D0010ED26F14
:104EB00001D0D26BB651B26FB751B36FB251FE6F22
:104EC000B351FF6FD4EC15F0B451FE6FB551FF6FC5
:104ED0008DEC15F033EC15F016EC18F01200C69EB0
:104EE000C69CC68AC688C696C694C682C690C79E09
:104EF000C79C6C9E6C9C6C8A6C886C966C946C8263
:104F00006C906D8E6D9C020E0301876F1AEC00F0A1
:104F100012008A888A8A020E0301876F1AEC00F059
:104F2000010E0201E46FE451020838E3FA6BB4ECBD
:104F30001BF0FA6BFB6B69EC1BF0FA6B5EEC1BF081
:104F4000FA6B09EC1BF0020EFA6F8FEC1BF0FA6B98
:104F5000FDEC1AF0FA6B77EC1BF0FA6B15EC1BF01A
:104F6000FA6BA7EC1BF0FA6B9BEC1BF0FA6B52ECA4
:104F70001BF0010EFA6F3AEC1BF0FA6B2DEC1BF0F4
:104F8000010EFA6F21EC1BF0050EFA6F83EC1BF09B
:104F9000030EFA6F46EC1BF0E42BC5D7060E030197
:104FA0009A6F9B6B72EC01F09E510201F66F030148
:104FB0009F510201F76FF40EEE6F010EEF6F080EB6
:104FC000F06FF16BF26B440EF36FF46BF56BC00E88
:104FD000F86FF96BF051EE25FA6FF151FF6FEF5159
:104FE000FF23FF51FB6FFC6BFD6BFFAF02D0FC0793
:104FF000FD07F6510301BA6F0201F7510301BB6FC0
:10500000BC6B0201F7AF02D00301BC070301BD6B0B
:105010000201F7AF02D00301BD070201F251030103
:10502000BE6F0201F3510301BF6F0201F45103018E
:10503000C06F0201F5510301C16FCCEC00F0C25109
:10504000006FC351016FC451026FC551036F02015C
:10505000FA51030100270201FB5103010123020160
:10506000FC51030102230201FD510301032302014C
:10507000F8517C6FF9517D6F7E6B7F6BF9AF02D079
:105080007E077F070301005102017C2703010151C4
:1050900002017D230301025102017E23030103511A
:1050A00002017F233DEC01F0A251846FA351856F73
:1050B000F4EC01F012007F927D82D08EF28EF28CA1
:1050C000D58E12000201F26BAAEC23F0010EF66FEE
:1050D000B7EC00F040EF70F0120002017451EE6F77
:1050E0007551EF6F7651F06F7751F16FEE510C08FB
:1050F0000AE1EF51000807E1F051000804E1F15125
:105100000008D8B47FD0EE5118080AE1EF5100082A
:1051100007E1F051000804E1F1510008D8B479D05A
:10512000EE5130080AE1EF51000807E1F0510008A4
:1051300004E1F1510008D8B473D0EE5160080AE1DF
:10514000EF51000807E1F051000804E1F1510008B7
:10515000D8B46DD0EE5190080AE1EF51000807E194
:10516000F051000804E1F1510008D8B467D0EE51C5
:10517000C0080AE1EF51000807E1F051000804E11E
:10518000F1510008D8B461D0EE5120080AE1EF5186
:10519000010807E1F051000804E1F1510008D8B41A
:1051A0005AD0EE51800809E1EF51010806E1F051B3
:1051B000000803E1F151000855E0EE51300809E123
:1051C000EF51020806E1F051000803E1F151000837
:1051D0004FE0EE51400809E1EF51020806E1F051BD
:1051E000000803E1F15100084AE0EE51800853E164
:1051F000EF51040850E1F05100084DE1F151000871
:1052000044E049D0B00E6C6F040E6D6F6E6B6F6B27
:1052100042D0600E6C6F090E6D6F6E6B6F6B3BD082
:10522000C00E6C6F120E6D6F6E6B6F6B34D0800E94
:105230006C6F250E6D6F6E6B6F6B2DD0400E6C6FAB
:10524000380E6D6F6E6B6F6B26D06C6B4B0E6D6F87
:105250006E6B6F6B20D0800E6C6F700E6D6F6E6B0F
:105260006F6B19D06C6B960E6D6F6E6B6F6B13D08E
:10527000C00E6C6FDA0E6D6F6E6B6F6B0CD06C6B5B
:10528000E10E6D6F6E6B6F6B06D06C6BC20E6D6F47
:10529000010E6E6F6F6B3DEC1CF00201F26BAAEC1D
:1052A00023F0010EF66FB7EC00F0F29EFF00120043
:1052B000BFEC1BF01200060E0101FD631BD0FE5176
:1052C00019E1010E0201F36FE10EF26F250EF66F88
:1052D000300EF76F360EF86F750EF96FFA6B020E1F
:1052E000F56FF60EF46FB251FB6FB351FC6F42ECE9
:1052F00018F01200010E0201F36FE10EF26F250E9D
:10530000F66F300EF76F340EF86F750EF96FFA6B9B
:10531000020EF56FF60EF46FB251FB6FB351FC6FD6
:1053200042EC18F012000201D4510101E46F060EA4
:10533000FD6319D0FE5117E1010E0201F36FE10E7A
:10534000F26F250EF66F300EF76F360EF86F750E92
:10535000F96FFA6B020EF56FF60EF46FFB6BFC6BD8
:1053600042EC18F01200010E0201F36FE10EF26F31
:10537000250EF66F300EF76F340EF86F750EF96F5D
:10538000FA6B020EF56FF60EF46FFB6BFC6B42ECE2
:1053900018F01200060E0101FD631BD0FE5119E149
:1053A000010E0201F36FE10EF26F250EF66F300E63
:1053B000F76F360EF86F750EF96FFA6B020EF56F18
:1053C000F60EF46FB051FB6FB151FC6F42EC18F068
:1053D0001200010E0201F36FE10EF26F250EF66F5F
:1053E000300EF76F340EF86F750EF96FFA6B020E10
:1053F000F56FF60EF46FB051FB6FB151FC6F42ECDC
:1054000018F012006CEC24F00C5102013C6F030107
:105410000D5102013D6F03010E5102013E6F030168
:105420000F5102013F6F060E0101FD631FD0FE51B7
:105430001DE1010E0201F16FE10EF06F250EF46F18
:10544000300EF56F360EF66F750EF76FF86B020EB5
:10545000F36FF40EF26F3C51F96F3D51FA6F3E510C
:10546000FB6F3F51FC6F83EC19F01200640E0201D8
:105470003C15EE6F000E3D15EF6F320EEE65EF67D7
:1054800001D004D0010EEE6FEF6B02D0EE6BEF6B2C
:10549000F46B3C510301A86F02013D510301A96F58
:1054A00002013E510301AA6F02013F510301AB6F9C
:1054B00002013FAF0ED00301A81FA91FAA1FAB1FF7
:1054C000A82BD8B4A92BD8B4AA2BD8B4AB2B0201E3
:1054D000F42B640E0301AC6FAD6BAE6BAF6B0BECDA
:1054E00001F0B4510201F06F0301B5510201F16FF7
:1054F0000301B6510201F26F0301B7510201F36FCC
:10550000F4A10BD0F01FF11FF21FF31FF02BD8B442
:10551000F12BD8B4F22BD8B4F32BEE513C6FEF51F2
:105520003D6F3E6B3F6BF0513C27F1513D23F251F3
:105530003E23F3513F23010EF16FE10EF06F250E74
:10554000F46F300EF56F340EF66F750EF76FF86B63
:10555000020EF36FF40EF26F3C51F96F3D51FA6F8A
:105560003E51FB6F3F51FC6F83EC19F01200060EA9
:105570000101FD631FD0FE511DE1010E0201F16F1B
:10558000E10EF06F250EF46F300EF56F360EF66FEC
:10559000750EF76FF86B020EF36FF40EF26F5C513D
:1055A000F96F5D51FA6F5E51FB6F5F51FC6F83ECD9
:1055B00019F01200010E0201F16FE10EF06F250EDD
:1055C000F46F300EF56F340EF66F750EF76FF86BE3
:1055D000020EF36FF40EF26F5C510301A86F02012B
:1055E0005D510301A96F02015E510301AA6F02011F
:1055F0005F510301AB6F640EAC6FAD6BAE6BAF6B05
:105600000BEC01F0B4510201F96F0301B551020135
:10561000FA6F0301B6510201FB6F0301B75102019A
:10562000FC6F83EC19F012000101FD510201F06FD3
:105630000101FE510201F16F020EF36FEF0EF26FE6
:105640000A0EF46F8EEC1CF0300EEE6FD25302E0B7
:10565000EE83D26BD0B202D0EE81D082010EF16F18
:10566000E10EF06F300EF46F360EF56FF66FF76BDC
:10567000020EF36FF40EF26F2EEC18F0EE510101F2
:10568000E46F0201EF510101E56F300E0201BA250E
:105690000101E66FE76B1200F6EC09F026510201FA
:1056A000A86F030127510201A96F010EFF6FE10EE0
:1056B000FE6FA8510301006F0201A9510301016FA0
:1056C000040E026FDEEC13F01200060E0101FD6302
:1056D0001BD0FE5119E1010E0201F36FE10EF26FD2
:1056E000250EF66F300EF76F360EF86F750EF96FE8
:1056F000FA6B020EF56FF60EF46FBC51FB6FBD51E5
:10570000FC6F42EC18F01200010E0201F36FE10E83
:10571000F26F250EF66F300EF76F340EF86F750EC0
:10572000F96FFA6B020EF56FF60EF46FBC51FB6F5A
:10573000BD51FC6F42EC18F01200010E0201BA6379
:1057400006D0BB5104E1570EEE6F040EEF6FBA5353
:1057500004E1BB5302E1EE6BEF6B060E0101FD634A
:105760001BD0FE5119E1010E0201F36FE10EF26F41
:10577000250EF66F300EF76F360EF86F750EF96F57
:10578000FA6B020EF56FF60EF46FEE51FB6FEF51F0
:10579000FC6F42EC18F01200010E0201F36FE10EF3
:1057A000F26F250EF66F300EF76F340EF86F750E30
:1057B000F96FFA6B020EF56FF60EF46FEE51FB6F98
:1057C000EF51FC6F42EC18F01200060E0101FD6370
:1057D0001FD0FE511DE1010E0201F16FE10EF06FCD
:1057E000250EF46F300EF56F360EF66F750EF76FEF
:1057F000F86B020EF36FF40EF26F6051F96F6151A6
:10580000FA6F6251FB6F6351FC6F83EC19F0120069
:10581000010E0201F16FE10EF06F250EF46F300EF4
:10582000F56F340EF66F750EF76FF86B020EF36FAF
:10583000F40EF26F60510301A86F02016151030180
:10584000A96F020162510301AA6F020163510301B2
:10585000AB6F640EAC6FAD6BAE6BAF6B0BEC01F06E
:10586000B4510201F96F0301B5510201FA6F03014E
:10587000B6510201FB6F0301B7510201FC6F83ECCB
:1058800019F01200060E0101FD631BD0FE5119E153
:10589000010E0201F36FE10EF26F250EF66F300E6E
:1058A000F76F360EF86F750EF96FFA6B020EF56F23
:1058B000F60EF46FB451FB6FB551FC6F42EC18F06B
:1058C0001200010E0201F36FE10EF26F250EF66F6A
:1058D000300EF76F340EF86F750EF96FFA6B020E1B
:1058E000F56FF60EF46FB451FB6FB551FC6F42ECDF
:1058F00018F01200070E0201C26F000EF16FF60ED3
:10590000F06F7DEC23F0F351EE6FF451EF6F000E6A
:10591000EE65EF6701D018D0EFBF16D0010E03017E
:10592000206F0201EE510301216F0201EF510301CB
:10593000226F236B246B0201EFAF03D00301230717
:10594000240703012FEC0CF0EFAF1FD00301206BF5
:105950000201EE510301216F0201EF510301226F99
:10596000236B246B0201EFAF03D00301230724074D
:105970000301211F221F231F241F213F04D0223F88
:1059800002D0234B242B2FEC0CF047EC0AF0020E34
:10599000246FCAEC0AF031510101F56F0301325155
:1059A0000101F66FF76BF86B010E0201DF6F010E5C
:1059B000F16FE10EF06F250EF46F300EF56F360EBD
:1059C000F66F750EF76FF86B020EF36FF40EF26F51
:1059D0000101F5510201F96F0101F6510201FA6F5F
:1059E0000101F7510201FB6F0101F8510201FC6F47
:1059F00083EC19F01200020174510101F96F0201E8
:105A000075510101FA6F020176510101FB6F02012C
:105A100077510101FC6F82A21200040EFD6327D0B2
:105A2000FE5125E1F9510301BA6F0101FA51030159
:105A3000BB6F0101FB510301BC6F0101FC5103016C
:105A4000BD6F640EBE6FBF6BC06BC16BCCEC00F062
:105A5000C2510101F96F0301C3510101FA6F030142
:105A6000C4510101FB6F0301C5510101FC6F02012B
:105A700063510101FC5D0EE1020162510101FB5D18
:105A800009E1020161510101FA5D04E10201605185
:105A90000101F95D10E2020160510101F96F02019B
:105AA00061510101FA6F020162510101FB6F0201B4
:105AB00063510101FC6FFC5102015F5D0EE10101C8
:105AC000FB5102015E5D09E10101FA5102015D5DD8
:105AD00004E10101F95102015C5D0FE25C51010139
